:020000040800F2
:1000000000280020B90C0008090D0008090D00089F
:10001000090D0008090D0008090D00080000000086
:10002000000000000000000000000000090D0008B2
:10003000090D000800000000090D0008C50B0008AC
:10004000090D0008090D0008090D0008090D000838
:10005000090D0008090D0008090D0008090D000828
:10006000090D0008090D0008090D0008090D000818
:10007000090D0008090D0008090D0008090D000808
:10008000090D0008090D0008090D0008090D0008F8
:10009000090D0008090D0008090D0008090D0008E8
:1000A000090D0008090D0008090D0008090D0008D8
:1000B000090D0008090D0008090D0008090D0008C8
:1000C000090D0008090D0008090D0008090D0008B8
:1000D000090D0008090D0008090D0008090D0008A8
:1000E000090D0008090D000800000000090D0008B6
:1000F000090D0008090D0008090D0008090D000888
:10010000090D0008090D0008090D0008090D000877
:10011000090D0008090D0008090D0008090D000867
:10012000090D0008090D0008090D0008090D000857
:1001300010B5054C237833B9044B13B10448AFF321
:1001400000800123237010BD00000020000000008B
:10015000540D000808B5034B1BB103490348AFF326
:10016000008008BD0000000004000020540D0008BD
:1001700080B586B000AF40237B824FF480633B8222
:100180000D4B3B600023FB8000237B610023BB8081
:100190000A4800F055FA3B461946084800F088F92D
:1001A00000F05AFC3B461946044800F081F900BFB4
:1001B0001837BD4680BD00BFA08601000054004036
:1001C00080B5C8B002AF07F58C73A3F586731860CD
:1001D00007F58C73A3F58873196007F58C73A3F288
:1001E00011131A70002387F8173107F58C73A3F5E4
:1001F00086731B681B0ADAB207F58C73A3F582734A
:100200001A7007F58C73A3F586731B68DAB207F5CD
:100210008C73A3F582735A70022387F8173115E0A7
:1002200097F81731023B07F58C72A2F588721268B5
:100230001A4497F81731117807F58C72A2F582727B
:10024000D15497F81731013387F8173107F58C73BC
:10025000A3F211131B785A1C97F817319A42DFDA70
:1002600007F58C73A3F211131B780233194607F1BB
:10027000140200230193002300930B4650210448ED
:1002800000F008FA0023184607F58C77BD4680BDBC
:100290000054004080B588B002AFF860B9601346E2
:1002A000FB71FB681B0ADBB23B75FB68DBB27B753D
:1002B00007F114020023019301230093022350212C
:1002C000084800F0E7F9FB79012201920022009230
:1002D000BA685021034800F03FFA00231846183747
:1002E000BD4680BD0054004080B485B000AF0346D9
:1002F000FB710B46BB7113467B710023FB73FB79CB
:10030000022B7FD0022B00F3B880002B02D0012BF0
:100310003CD0B2E0BB79072B19D85F4B1B68BA7988
:1003200092000F2101FA02F2D24311465A4A0B40C1
:100330001360594B1B687979BA79920001FA02F27D
:100340001146554A0B4313600123FB7398E0BB79B8
:100350000F2B00F29580514B1B68BA79083A920036
:100360000F2101FA02F2D24311464C4A0B401360AE
:100370004A4B1B687979BA79083A01FA02F21146B8
:10038000464A0B4313600123FB7379E0BB79072BCB
:1003900019D8434B1B68BA7992000F2101FA02F277
:1003A000D24311463E4A0B4013603D4B1B6879799E
:1003B000BA79920001FA02F21146394A0B431360EE
:1003C0000123FB735EE0BB790F2B5BD8354B1B68B9
:1003D000BA79083A92000F2101FA02F2D24311468B
:1003E000304A0B4013602F4B1B687979BA79083A71
:1003F000920001FA02F211462A4A0B4313600123CC
:10040000FB733FE0BB79072B19D8274B1B68BA79E0
:1004100092000F2101FA02F2D2431146224A0B4008
:100420001360214B1B687979BA79920001FA02F2C4
:1004300011461D4A0B4313600123FB7324E0BB7973
:100440000F2B21D8194B1B68BA79083A92000F215B
:1004500001FA02F2D2431146144A0B401360134BC7
:100460001B687979BA79083A01FA02F211460F4A03
:100470000B4313600123FB7306E00023FB7304E0CE
:1004800000BF02E000BF00E000BFFB7B184614374E
:10049000BD4680BC704700BF000801400408014011
:1004A000000C0140040C0140001001400410014008
:1004B000B0B586B000AF786039600023FB820023BE
:1004C000BB82594B3B610023FB81584B1B68574A49
:1004D00023F4004313607B68544A93420ED1544A7C
:1004E0003B6814461D460FCD0FC495E8030084E811
:1004F00003001521022000F00DFB0EE04C4B3A6882
:1005000003F1180415460FCD0FC495E8030084E8E5
:1005100003001621022000F0FDFA3B68DB88002B67
:1005200078D17B685B68FB82FB8A23F03F03FB8208
:100530003D4B3B613B693F4AA2FB03239B0CBB82C3
:10054000FA8ABB8A1343FB82FA8A7B685A607B680B
:100550001B6823F001027B681A600023FB823B6862
:100560001B68354A934204D03B681B68334A934268
:1005700012D13B681B685B003A69B2FBF3F3FB8165
:10058000FA8AFB891343FB82FA8A7B68DA61BB8AA9
:1005900001331A467B681A627B681B68FB823B68E2
:1005A0001A8A3B685B8A13439AB23B68DB88134321
:1005B0009AB23B689B8813439AB2FB8A1343FB822F
:1005C000FA8A7B681A600023FB823B681B89012B37
:1005D0000DD10123FB823B689B895B001AB2B7F9FE
:1005E000163013431BB2FB82FA8A7B68DA60002361
:1005F000FB823B685B895B001AB2B7F91630134384
:100600001BB2FB823B68DA89FB8A1343FB82FA8ABE
:100610007B689A607B681B6843F001027B681A6004
:1006200000BF1837BD46B0BD00127A00005400402C
:100630001C00002083DE1B4320A10700A0860100D0
:1006400080B582B000AF78607B68104A93420AD1CF
:100650000E2206210120FFF747FE0E22072101206E
:10066000FFF742FE0DE07B68094A934209D10D2253
:100670000A210120FFF738FE0D220B210120FFF790
:1006800033FE00BF0837BD4680BD00BF00540040A8
:100690000058004080B586B000AFF8607A603B60DB
:1006A0000B467B8100237B6197F824301A46012199
:1006B000F86800F0CDF800BF0121F86800F0F0F80C
:1006C0000346002BF8D07B8900221946F86800F019
:1006D0006DF9142000F0D6FA00BF0221F86800F08E
:1006E000DFF80346002BF8D0142000F0CBFA00BF4F
:1006F0001849F86800F0D4F80346002BF8D014200D
:1007000000F0C0FA00237B6114E07B697A6813442F
:100710001B781A46FB681A61142000F0B3FA00BF78
:100720000421F86800F0BCF80346002BF8D07B6980
:1007300001337B617B693A689A42E6D897F82030AA
:10074000002B03D10121F86800F04FF900BF1837E2
:10075000BD4680BD8000070080B586B000AFF86060
:100760007A603B600B467B81FB68374A934214BF3B
:1007700001230023DBB2FB7400237B6197F8243054
:100780001A460121F86800F063F800BF0121F868FB
:1007900000F086F80346002BF8D07B890122194629
:1007A000F86800F003F9142000F06CFA00BF022191
:1007B000F86800F075F80346002BF8D00121F868BE
:1007C00000F02EF9142000F05DFA3B68002B1FD0DA
:1007D0003B687B6115E000BF0321F86800F060F81A
:1007E0000346002BF8D0FB681B69DAB27B681A70ED
:1007F000142000F047FA7B6801337B607B69013B82
:100800007B617B69012BE6DC0021F86800F008F9C8
:1008100097F82030002B03D10121F86800F0E5F8AB
:10082000FA7C0A4913465B001344DB000B44103387
:100830001B88B3F5806F03D10121F86800F0F0F850
:1008400000BF1837BD4680BD005400401C0000208A
:1008500080B582B000AF78600B46FB701346BB706A
:10086000BB78012B07D000BF0021786800F018F892
:100870000346002BF8D1FB78002B06D07B681B6861
:1008800043F480727B681A6005E07B681B6823F480
:1008900080727B681A6000BF0837BD4680BD0000CB
:1008A00080B487B000AF786039600023FB75002307
:1008B0003B610023FB600023BB603B68052B11D824
:1008C0003B68052B6AD801A252F823F0EF08000814
:1008D000070900081F090008850900086D090008BC
:1008E0006D0900083B68304A934224D056E07B688B
:1008F0009B6903F00203002B02D00123FB754DE03E
:100900000023FB754AE07B685B6903F00103002B61
:1009100002D00123FB7541E00023FB753EE07B68BC
:100920005B6903F00203002B02D00123FB7535E065
:100930000023FB7532E07B685B693B617B689B69E8
:10094000FB60FB681B04FB603A69FB68134323F000
:100950007F43BB60BA683B6813403A689A4202D151
:100960000123FB751AE00023FB7517E07B685B69C8
:1009700003F08003002B02D00123FB750EE000235F
:10098000FB750BE07B685B6903F04003002B02D032
:100990000123FB7501E00023FB7500BFFB7D1846BA
:1009A0001C37BD4680BC70478000070080B483B010
:1009B00000AF78600B467B8013467B707B885B00C2
:1009C0007B807B78002B04D07B8843F001037B8005
:1009D00003E07B8823F001037B807A887B681A61BF
:1009E00000BF0C37BD4680BC704780B483B000AFF9
:1009F00078600B46FB70FB78002B06D07B681B6889
:100A000043F400727B681A6005E07B681B6823F47E
:100A100000727B681A6000BF0C37BD4680BC70470F
:100A200080B483B000AF78600B46FB70FB78002B7E
:100A300006D07B681B6843F480627B681A6005E01F
:100A40007B681B6823F480627B681A6000BF0C37E8
:100A5000BD4680BC7047000080B400AF044B1B68EB
:100A6000034A43F40043136000BFBD4680BC704797
:100A70000054004080B400AF244B1B68234A43F06D
:100A80000103136000BF214B1B6803F00203002B1E
:100A9000F9D01F4B1B681E4A23F0010313601C4B47
:100AA0001B681B4A23F002031360184B1B68174A8C
:100AB00043F08073136000BF144B1B6803F0007396
:100AC000002BF9D0124B1B68114A23F0F00313607E
:100AD0000F4B0F4A1B6813600D4B1B680C4A23F425
:100AE000E06313600A4B0A4A1B681360084B1B68DB
:100AF000074A23F460531360054B054A1B681360D3
:100B000001231846BD4680BC704700BF001002405C
:100B10000410024080B485B000AF03460A46FB7162
:100B20001346BB710023FB73FB79032B20D0032BEF
:100B30002BDC012B02D0022B0DD026E0174B1B68BB
:100B4000BA79012101FA02F21146144A0B431360EB
:100B50000123FB731CE0124B1B68BA79012101FAD7
:100B600002F211460E4A0B4313600123FB730FE0A0
:100B70000C4B1B68BA79012101FA02F21146094AAD
:100B80000B4313600123FB7302E00023FB7300BFE0
:100B9000FB7B18461437BD4680BC704714100240DA
:100BA0001C1002401810024080B400AF044B1B68B8
:100BB000034A23F00103136000BFBD4680BC7047A9
:100BC00010E000E080B500AF084B1B68002B02D09E
:100BD000064B1B689847064B1B78002B04D1044B2F
:100BE00001221A70FFF7E0FF00BF80BD5000002017
:100BF0004C00002080B582B000AFFFF73BFF022120
:100C00000320FFF787FF03210320FFF783FF002165
:100C10000320FFF77FFF194A3B4692E80300186064
:100C20000433198002330A0C1A70FFF7A1FA3B460D
:100C300007221946A020FFF7C3FA142000F022F87B
:100C400007220F49A120FFF725FB142000F01AF816
:100C50000A233B700B237B700C23BB700D23FB70AE
:100C60003B460422194640F6FF70FFF7A9FA04221A
:100C7000034940F6FF70FFF70DFBFEE76C0D00081F
:100C80005400002080B485B000AF78607B684FF4DA
:100C90007A7202FB03F3BB600023FB6002E0FB6897
:100CA0000133FB60FA68BB689A42F8D300BF00BF0B
:100CB0001437BD4680BC70470D488546AFF30080B1
:100CC0000C480D490D4A002302E0D458C4500433A7
:100CD000C4188C42F9D30A4A0A4C002301E013607D
:100CE0000432A242FBD300F011F8FFF783FFFEE7C6
:100CF0000028002000000020000000207C0D0008DB
:100D0000000000205C000020FEE7000070B5002617
:100D10000C4D0D4C641BA410A64209D100F01AF82A
:100D200000260A4D0A4C641BA410A64205D170BDD2
:100D300055F8043B98470136EEE755F8043B9847D1
:100D40000136F2E7740D0008740D0008740D0008F8
:100D5000780D0008F8B500BFF8BC08BC9E46704787
:0C0D6000F8B500BFF8BC08BC9E46704708
:080D6C00010203040506070063
:040D7400550100081D
:040D7800310100083D
:0400000508000CB92A
:00000001FF
