:020000040800F2
:10000000B006002089010008910100089301000852
:100010009501000897010008990100080000000000
:100020000000000000000000000000009B0100082C
:100030009D010008000000009F010008750E0008E7
:10004000A3010008A3010008A30100085D0D00083A
:10005000A3010008A3010008A3010008A3010008F0
:10006000A3010008A3010008A3010008A3010008E0
:10007000A3010008A3010008A3010008A3010008D0
:10008000A3010008A3010008A3010008A3010008C0
:10009000A3010008A3010008A3010008A3010008B0
:1000A000A3010008A3010008A3010008A3010008A0
:1000B000A3010008A3010008A3010008A301000890
:1000C000A3010008A3010008A3010008A301000880
:1000D000A3010008A3010008A3010008A301000870
:1000E000A3010008A3010008A301000800F002F822
:1000F00000F03AF80AA090E8000C82448344AAF188
:100100000107DA4501D100F02FF8AFF2090EBAE885
:100110000F0013F0010F18BFFB1A43F0010318473B
:1001200090120000B0120000103A24BF78C878C1C5
:10013000FAD8520724BF30C830C144BF04680C60ED
:10014000704700000023002400250026103A28BF35
:1001500078C1FBD8520728BF30C148BF0B60704739
:100160001FB51FBD10B510BD00F090F91146FFF787
:10017000F7FF00F0B5FE00F0AEF903B4FFF7F2FFB1
:1001800003BC00F0B5F90000094880470948004762
:10019000FEE7FEE7FEE7FEE7FEE7FEE7FEE7FEE737
:1001A000FEE7FEE704480549054A064B7047000094
:1001B000890E0008ED000008B0000020B006002005
:1001C000B0020020B00200204FF0000200B513463C
:1001D00094469646203922BFA0E80C50A0E80C5067
:1001E000B1F12001BFF4F7AF090728BFA0E80C5018
:1001F00048BF0CC05DF804EB890028BF40F8042B11
:1002000008BF704748BF20F8022B11F0804F18BF7D
:1002100000F8012B70470000014900F0DBB8000036
:100220000800002010B503681C1404EB21449BB2A5
:1002300089B2194494FBF2F302FB134394FBF2F4EA
:1002400001EB034393FBF2F102FB113193FBF2F359
:1002500001E05B1E11440029FBDB016003EB04405D
:1002600010BD2DE9F04704464FF0FF3A86B0006814
:10027000029060680390A0680490E0680190206993
:100280000090656905F18040B0F1004F7DD83C22B7
:10029000002102A8FFF7C6FF3C22014603A8FFF792
:1002A000C1FF1822014604A8FFF7BCFF411E40F21F
:1002B000B55201A8FFF7B6FF0C220646684600219A
:1002C000FFF7B0FF00EB860028443E4D00267D443A
:1002D0000FE09A1A491CCDE90012022902D00C291C
:1002E00007D104E0810704D0521C019201E0401CB8
:1002F00000960099019B6A5C9A42EADD012906D1C9
:100300001C2B04D1810702D00221CDE90016A0F1F7
:1003100046018B2940D20199009B00220F4602E042
:10032000AE5C521C31449A42FADB012B02DD82079B
:1003300000D0491E40F2B55540F26D16C21700EBD1
:10034000927292106A4300F0030505FB06228507AE
:100350000A4400D1521E049D02EB4206DDF80C80D7
:10036000A94605EBC605184EC5EB0515DDF808C016
:1003700008EB850535442E14ADB2C6EB0616C5EB69
:100380000515B6000CEB850500E005E006EB15460B
:1003900066F31F45360C03D0504606B0BDE8F08723
:1003A000C4E904307F1C0720521CC4E9029792FB69
:1003B000F0F3E4E806C800FB132084E803042846B1
:1003C000EBE70000D2100000A039CEFD7047704767
:1003D0007047000070B50C46016800204A1C3ED0F2
:1003E0003C22B1FBF2F302FB1313B1FBF2F12360E9
:1003F000B1FBF2F302FB1313B1FBF2F118226360BD
:10040000B1FBF2F302FB1313B1FBF2F146F2E0325F
:100410000A440721A360B2FBF1F301FB132140F270
:10042000B553B2FBF3F5A161B2FBF3F103FB152267
:100430008900B2F5B77F08D39B10521EB2FBF3F5CB
:100440002944B2FBF3F503FB15220F4BE261616116
:1004500089077B440CD03B2A0AD3521C08E02C218C
:100460002046FFF7B1FE0120E0600AE0521A401C6E
:10047000195C9142FAD9521CC4E903204FF0FF30B5
:100480002062204670BD00004E0F0000754600F04F
:100490002BF8AE4605006946534620F00700854616
:1004A00018B020B5FFF77EFEBDE820404FF00006F3
:1004B0004FF000074FF000084FF0000BAC46ACE8DF
:1004C000C009ACE8C009ACE8C009ACE8C00921F03B
:1004D00007018D46704710B50446AFF300802046F3
:1004E000BDE81040FFF749BE0048704734000020C7
:1004F00001491820ABBEFEE726000200704700004D
:1005000070B540F29406C2F200063078022814D189
:1005100000F016F840F29C0440F2A805C2F2000474
:10052000C2F200052046294600F056FB2046294627
:1005300000F07AF80020307070BD0130307070BD6E
:1005400080B5012000F0D6F8002080BD80B50120E4
:100550000021022200F06CF901200121022200F0AA
:1005600067F901200A21022200F062F9002004212B
:10057000022200F05DF900200521022200F058F966
:1005800000200621022200F053F900200721022258
:1005900000F04EF9232000F0A9FB022000F0AAF899
:1005A000052000F0A3FB282000F0A4F8052000F0AF
:1005B0009DFB0F2000F09EF8052000F097FBFFF751
:1005C000BFFF052000F092FB802000F093F81E2072
:1005D00000F08CFB002080BD80B501200A210122A3
:1005E00000F0ACF9022000F081FB01200A2100227A
:1005F00000F0A4F9002080BD80B5024601284FF02C
:10060000010098BF0F2900D980BD012A03D04AB943
:1006100081F0800002E0A1F14000C0B200F06AF871
:10062000002080BD012080BDB0B560B30C4600291C
:1006300008BFB0BD054614A000F0C0F8E87800F08F
:1006400087F82F2000F028F8A87800F081F82F20F4
:1006500000F022F8288800F07BF801200021FFF745
:10066000CBFF0BA000F0AAF8207800F071F83A2038
:1006700000F012F8607800F06BF83A2000F00CF807
:10068000A07800F065F8B0BD446174653A200000C0
:1006900054696D653A20000010B504460120002120
:1006A000012200F04BF901200121002200F046F95F
:1006B000052000F01BFB230900200421072200F085
:1006C0008FF8052000F012FBFFF786FF052000F0F1
:1006D0000DFB04F00F0300200421072200F080F836
:1006E000052000F003FBFFF777FF052000F0FEFA7E
:1006F000002010BD10B5044601200021002200F0AA
:100700001DF901200121002200F018F9052000F058
:10071000EDFA230900200421072200F061F80520EA
:1007200000F0E4FAFFF758FF052000F0DFFA04F0CC
:100730000F0300200421072200F052F8052000F0EA
:10074000D5FAFFF749FF052000F0D0FA002010BDD0
:10075000B0B586B058B34CF6CD4E00210124CCF68E
:10076000CC4E0DF1040C0591CDE90311CDE9011139
:10077000A0FB0E25ED08224605EB8504A0EB440402
:1007800044F03004CBB20CF803400131541C0A2869
:100790002846EDD208060DD0D4B20CEB0400451E5D
:1007A00015F80109FFF778FF013CF9D102E030208C
:1007B000FFF772FF002006B0B0BD0000B0B568B111
:1007C0000446007840B10025C0B2FFF765FF01354F
:1007D000E8B2205C0028F7D10020B0BD0120B0BDF8
:1007E0002DE9F04106468A424FF001001BD3022E4C
:1007F00019D80D4611430F2988BFBDE8F081501B61
:100800000130010611D09846C7B2002428FA04F03E
:1008100000F001026019C1B2304600F08FF80134D7
:10082000A742F3D10020BDE8F0810020BDE8F081AF
:1008300080B502280BD0012823D000287CD10729BD
:1008400027D888004FF00F0C40F6000364E007291A
:1008500039D840F60443C4F2010388004FF00F0C6E
:10086000D3F8FCE30CFA00F12EEA0101C3F8FC1303
:10087000D3F8FC1302FA00F00843C3F8FC0300208D
:1008800080BD07293ED888004FF00F0C40F60003CA
:1008900025E00F2950D840F600036FF01F00C4F286
:1008A000010300EB81004FF00F0CD3F804E00CFAC9
:1008B00000F12EEA01015960596802FA00F008437C
:1008C0005860002080BD0F2984BF012080BD6FF0DB
:1008D0001F0000EB81004FF00F0C40F60443C4F200
:1008E0000103D3F800E40CFA00F12EEA0101C3F889
:1008F0000014D3F8001402FA00F00843C3F800040F
:10090000002080BD0F2917D86FF01F0000EB810079
:100910004FF00F0C40F60443C4F20103D3F800E09B
:100920000CFA00F12EEA01011960196802FA00F0D0
:1009300008431860002080BD012080BD022898BFB8
:100940000F2901D901207047022820D001280FD09B
:100950000028F7D14FF0010062B3012A4ED140F6D2
:100960000C02C4F20102012013688840184329E0F8
:100970004FF001004AB3012A40D140F60C02C4F204
:1009800001020120D2F800348840184326E04FF0DD
:1009900001003AB3012A18BF704740F60C02C4F2B6
:1009A00001020120D2F8003888401843C2F800083C
:1009B0000020704740F60C02C4F201021368884020
:1009C00023EA000010600020704740F60C02C4F2D9
:1009D0000102D2F80034884023EA0000C2F8000483
:1009E0000020704740F60C02C4F20102D2F8003831
:1009F000884023EA0000C2F8000800207047000089
:100A000001461F280AD84EF20012CEF20002012041
:100A10001368884018431060002070473B294FF04E
:100A2000010088BF70474EF200122039CEF200025A
:100A3000C9B25368884018435060002070470000D6
:100A4000024603284FF001000FD0022A17D0012AD6
:100A500018BF704741F21402C4F202020120136869
:100A60008840184310600020704741F21402C4F21D
:100A7000020253688840184350600020704741F2DA
:100A80001402C4F202020120936888401843906067
:100A90000020704741F20401C4F2020151F8040C35
:100AA00020F4802041F8040C51F8040C40F480300C
:100AB00041F8040C51F8040C8003FBD5086840F0A1
:100AC00001000860086820F002000860086820F053
:100AD000F000086008680860086820F4E0600860BA
:100AE00008680860086820F4605008600A68002000
:100AF0000A607047F0B58DB00D46014600284FF0F2
:100B0000010018BF002D01D10DB0F0BD1446002A20
:100B1000FAD002AE0F6830462C21FFF755FB40F2A9
:100B20000000C2F200000188A1F26C710791817887
:100B300001390691C078059040F20400C2F200002D
:100B40000178049141780391807802903046FFF754
:100B500088FB3844019001A8FFF75EFB818A01F20F
:100B60006C712980017C0131A970D0E90012C36841
:100B70008068EB70207000206270A1700DB0F0BD35
:100B8000F0B58BB04FF0010610B30D4601B314461B
:100B9000F2B16E46074630462C21FFF715FB388828
:100BA000F978A0F26C700590B8780138CDE903109F
:100BB00028786978AA7802903046CDE90021FFF7BD
:100BC00050FB0021002600F0B6F900F06DFA20601D
:100BD00030460BB0F0BD00000A46014600284FF039
:100BE000010018BF002A00D1704780B582B042F6DC
:100BF0001800C4F200000368406840EA0340019016
:100C000001A8FFF777FF002818BF012002B0BDE858
:100C10008040704780B541F22000C4F2020050F8D5
:100C2000041C41F0805140F8041C47F20001C4F25A
:100C300000010A6842F480720A60016841F0010113
:100C4000016000BF01688907FCD5016841F480712B
:100C50000160016821F400710160026842F604013C
:100C6000C4F2000142F40042026000BF0A6892062A
:100C7000FCD50A6842F010020A6047F6FF728A60EB
:100C80000A6822F010020A600A689206FCD551F840
:100C9000042C42F0010241F8042C0A6822F00802F8
:100CA0000A6000BF0A681207FCD5016840F2A4027E
:100CB00041F40041016040F2000040F20401C2F240
:100CC0000000C2F20001C2F20002FFF759FF00204B
:100CD00080BD000000280FBF012040F2A001C2F239
:100CE0000001086018BF00207047000010B582B0F6
:100CF000002401A9019400F045F810B1012002B0D0
:100D000010BD4EF21001CEF20001086820F0010083
:100D100008608C6001984860086840F00100086035
:100D20000868C003FCD5086820F0010008600020B6
:100D30008860486002B010BD4EF21001CEF2000192
:100D4000002048608860086840F004000860086877
:100D500020F0020200200A607047000080B540F2D7
:100D6000A000C2F200000168002908BF80BD006831
:100D7000804742F60400C4F20000016821F001013E
:100D8000016080BD002904BF0120704741F20022AC
:100D9000C0F27A02504344F6D352C1F26202A0FB81
:100DA00002029009086000207047000080B500F042
:100DB00001F880BD82B041F204000021C4F20200BB
:100DC0000191009150F8041C41F4803140F8041C5A
:100DD00050F8041C01F40031009101990131019196
:100DE000009919B90199B1F5A06FF1D150F8041C1F
:100DF000890354BF0021012100910099012936D1B6
:100E000042F20001C4F202010A6842F010020A60D4
:100E10000A6822F007020A600A6842F002020A60C9
:100E20000168016001680160016841F4806101604E
:100E3000016821F47C110160016841F4E81101604E
:100E400050F8041C41F0807140F8041C50F8041C58
:100E50008901FBD5016821F003010160016841F0BF
:100E600002010160016801F00C010829FAD102B009
:100E70007047000080B540F29800C2F200000068A0
:100E8000002818BF804780BD80B541F20000C4F241
:100E900002000168002241F0010101604168CFF6C3
:100EA000FF021140416001684FF6FF72CFF6F66213
:100EB00011400160016821F480210160416821F442
:100EC000FE0141604FF41F018160FFF76FFF4EF696
:100ED0000850CEF200004FF00061016080BD0000BC
:100EE000FFF7D8FD03200221FFF7AAFD032003210D
:100EF000FFF7A6FDFFF720FFFFF728FB0320FFF712
:100F00007FFD40F20150C0F60000FFF7E3FEFFF75F
:100F100081FE40F29C0440F2A805C2F20004C2F235
:100F2000000520462946FFF757FE20462946FFF7D1
:100F30007BFB00BFFEE770B50646084600F0E1F80F
:100F400004460D46304600F0DCF822462B46BDE84C
:100F5000704000F03DB9000010B591EA030F48BFA2
:100F600083F0004300F13C81841A71EB030C05D23D
:100F7000121943EB0C03001B61EB0C014FEA1154F7
:100F8000A4EB135CDFF81CE11EEA430F18BF9EEAD6
:100F9000445F73D021EA045123EA0E0343F4801323
:100FA000DCF1200E32D322FA0CFE10EB0E0023FAF5
:100FB0000CFE41EB0E01CCF1200E03FA0EFE10EBFD
:100FC0000E00CCF1200E51F10001B1F5801F32D29C
:100FD00001EB045112FA0EF2BDE8104058BF704701
:100FE000401C38BF5FEA420218BF7047002814BF98
:100FF00020F0010041F100014FEA410313F5001F09
:1010000038BF7047A1F1C04100F0DCB8012A43EBC2
:101010000302ACF1200CDCF11F0E32BF4FF0000ECA
:1010200023FA0CF310EB030041EB0451B4EB115F16
:10103000D0D0A1EB045101F58011490801EB045116
:101040005FEA30000ED350F1000038BF12FA0EFEF6
:1010500008D1BDE81040C9E7401C38BF5FEA420232
:10106000CAD1C3E7BDE810404FEA410313F5001FA2
:1010700038BF7047A1F1C04100F0A4B89EEA445FB8
:1010800008D011EA5E0FBDE8104004BF01F0004136
:1010900000207047BDE8104070B500F045F800BF73
:1010A00064FBBE3E0000E0FF4FEA1153A3F58063EE
:1010B000D3F11E03A8BFD3F1200C08DB4FF0004290
:1010C00042EAC12252EA505232FA03F07047094212
:1010D0000BD4102BC4BF0020704703F5787CBCF103
:1010E000FF3F05D04FF0FF3070474FF000007047D2
:1010F00070B500F019F800BF4992248000207047B5
:10110000F0E7B0FA80F310FA03F10AD0C3F11D033F
:1011100003F580634FEA03524FEA415002EBD121BD
:1011200070474FF0000070470EF1020E2EF0030ED4
:101130005EF8046B364205D4012A43EB030515F52E
:10114000001F12D8012841EB010C1CF5001F0CD820
:101150000ED14FEAD17C0CEB4C0C0CF1020C15F5C6
:10116000001F08BF4CEBD37C04E04FF0080C01E0FB
:101170004FEAD37C0CEB4C0526FA05F606F0070681
:10118000B6F1040C06D20EEB860CBDE870404CF0B4
:10119000010C6047DFE80CF0090B02024FF0004140
:1011A000A1F500214FF0000070BD1946104601283E
:1011B00051EB010418BFD4F5001484BF002001F0E6
:1011C000004170BD0808A0F500114FEA31017047D9
:1011D00010B591EA030F48BF83F000433FF5C4AE5A
:1011E000841A71EB030C07D28CF0004C121943EBFC
:1011F0000C03001B61EB0C014FEA1154A4EB135CD0
:10120000DFF89CE11EEA430F18BF9EEA445F00F03E
:10121000B08021EA045123EA6E035242C3EB6E030D
:1012200038BF5B1EDCF1200E25D322FA0CFE10EB3A
:101230000E0043FA0CFE41EB0E01CCF1200E03FA36
:101240000EFE10EB0E00CCF1200E51F1000129D45E
:1012500001EB045112FA0EF2BDE8104058BF70477E
:10126000401C1CBFB2F1004F704700280CBF491C46
:1012700020F00100704712EB020E43EB030218BF8F
:101280004FF0010E4EEA4202ACF1200CDCF11E0ED2
:1012900054D943FA0CFE10EB0E00CCF11E0E51F1A6
:1012A000FF31D5D50EF1010E12FA0EFE404141EB91
:1012B000010101EB445C5FEA5C5C10D901EB045175
:1012C00010EBDE7038BFBEF1004FBDE8104018BF14
:1012D000704700280CBF491C20F00100704730D235
:1012E0004FEAD42C24F4006411F500111BD0B1FA9C
:1012F00081F20B3AA41AA41ED2F12003914030FAD5
:1013000003F31943904001EBCC7101EB0451002C25
:10131000BDE81040A8BF704701F1C04101F0004195
:101320004FF000007047B0FA80F310FA03F100D1DB
:1013300010BDE41A173C4805C90AE4E701EB045163
:1013400010BD49104FEA300001EB0451BDE81040D8
:1013500002E04FF0000170474A0008BF0042F8D099
:10136000B2F5001F28BF704701F000414FF00000A8
:1013700070479EEA445F07D011EA5E0FBDE8104057
:1013800004BF002100207047BDE8104070B5FFF792
:10139000CBFE00BF40DFF63E104683F000417047B1
:1013A0000000E0FF1F1D1F1E1F1E1F1F1E1F1E1FF0
:1013B000D0130008000000200800000028010008E9
:1013C000D813000808000020A80600004401000807
:0813D000E8070119110C0000EF
:040000050800018965
:00000001FF
