:020000040800F2
:10000000D006002089010008910100089301000832
:100010009501000897010008990100080000000000
:100020000000000000000000000000009B0100082C
:100030009D010008000000009F01000871080008F1
:10004000A3010008A3010008A3010008A301000800
:10005000A3010008A3010008A3010008A3010008F0
:10006000A3010008A3010008A3010008A3010008E0
:10007000A3010008A3010008A3010008A3010008D0
:10008000A3010008A3010008A3010008A3010008C0
:10009000A3010008A3010008A3010008A3010008B0
:1000A000A3010008A3010008A3010008A3010008A0
:1000B000A3010008A3010008A3010008A301000890
:1000C000A3010008A3010008A3010008A301000880
:1000D000A3010008DD0800082909000875090008C7
:1000E000A3010008A3010008A301000800F002F822
:1000F00000F03AF80AA090E8000C82448344AAF188
:100100000107DA4501D100F02FF8AFF2090EBAE885
:100110000F0013F0010F18BFFB1A43F0010318473B
:100120002409000044090000103A24BF78C878C1AF
:10013000FAD8520724BF30C830C144BF04680C60ED
:10014000704700000023002400250026103A28BF35
:1001500078C1FBD8520728BF30C148BF0B60704739
:100160001FB51FBD10B510BD00F071F81146FFF7A7
:10017000F7FF00F03DFC00F08FF803B4FFF7F2FF4B
:1001800003BC00F097F80000094880470948004781
:10019000FEE7FEE7FEE7FEE7FEE7FEE7FEE7FEE737
:1001A000FEE7FEE704480549054A064B7047000094
:1001B00085080008ED000008D0000020D0060020CF
:1001C000D0020020D00200204FF0013C50F8042B58
:1001D00051F8043B9A4221D1A2EB0C03934313EA5A
:1001E000CC1317D150F8042B51F8043B9A4215D187
:1001F000A2EB0C03934313EACC130BD150F8042B5E
:1002000051F8043B9A4209D1A2EB0C03934313EA41
:10021000CC13DBD04FF00000704700BFD01A01BAFA
:10022000B1FA81F101F0180122FA01F0CB40DBB202
:10023000C0B2C01AC1F120012CFA01F3D11A9143C6
:1002400011EAC311E6D17047704770477047754691
:1002500000F02CF8AE4605006946534620F0070032
:10026000854618B020B5FFF79DFFBDE820404FF050
:1002700000064FF000074FF000084FF0000BAC46AF
:10028000ACE8C009ACE8C009ACE8C009ACE8C009FA
:1002900021F007018D46704710B50446AFF300808A
:1002A0002046BDE81040FFF768BF000000487047D7
:1002B0003000002001491820ABBEFEE726000200F6
:1002C0007047000080B503200E2100F0B3F9032031
:1002D000022100F0AFF9002009210A2200F0A2F863
:1002E00000200A21082200F09DF800200A2100F0D9
:1002F00065F8252000F07EF940F21131C0F60001CA
:10030000002000F045FA002000F000FA002080BD37
:10031000F0B581B000270DF102010020ADF80270A8
:1003200000F022FABDF8020040F2B4062328C2F21F
:10033000000615D1307840F2B50440F20005C2F253
:100340000004C2F20005275420462946FFF73CFF6F
:1003500078B10137022F05F11405F5D100201AE01C
:10036000317840F2B502C2F20002505430780130C8
:1003700011E040F22800C2F20000077040F2AC0029
:10038000C2F2000050F8271021B150F82700804732
:10039000002000E00020307001B0F0BD02460128CE
:1003A0004FF0010009D8002908BF704740F2AC00A7
:1003B000C2F2000040F8221000207047022898BFC7
:1003C0000F2901D901207047024602284FF0010091
:1003D0000FD0012A19D0002A18BF704740F60C022E
:1003E000C4F2010201201368884018431060002005
:1003F000704740F60C02C4F20102D2F8003888407F
:100400001843C2F800080020704740F60C02C4F2FE
:1004100001020120D2F8003488401843C2F80004D9
:100420000020704780B502280BD0012823D0002877
:100430007CD1072927D888004FF00F0C40F6000325
:1004400064E0072939D840F60443C4F20103880068
:100450004FF00F0CD3F8FCE30CFA00F12EEA010187
:10046000C3F8FC13D3F8FC1302FA00F00843C3F8F6
:10047000FC03002080BD07293ED888004FF00F0CF8
:1004800040F6000325E00F2950D840F600036FF036
:100490001F00C4F2010300EB81004FF00F0CD3F8F2
:1004A00004E00CFA00F12EEA01015960596802FAE1
:1004B00000F008435860002080BD0F2984BF012050
:1004C00080BD6FF01F0000EB81004FF00F0C40F675
:1004D0000443C4F20103D3F800E40CFA00F12EEA5D
:1004E0000101C3F80014D3F8001402FA00F0084325
:1004F000C3F80004002080BD0F2917D86FF01F003B
:1005000000EB81004FF00F0C40F60443C4F20103EE
:10051000D3F800E00CFA00F12EEA01011960196825
:1005200002FA00F008431860002080BD012080BD61
:10053000022898BF0F2901D901207047022820D036
:1005400001280FD00028F7D14FF0010062B3012A33
:100550004ED140F60C02C4F201020120136888401B
:10056000184329E04FF001004AB3012A40D140F678
:100570000C02C4F201020120D2F800348840184372
:1005800026E04FF001003AB3012A18BF704740F649
:100590000C02C4F201020120D2F80038884018434E
:1005A000C2F800080020704740F60C02C4F20102B5
:1005B0001368884023EA000010600020704740F66E
:1005C0000C02C4F20102D2F80034884023EA000091
:1005D000C2F800040020704740F60C02C4F2010289
:1005E000D2F80038884023EA0000C2F80008002052
:1005F0007047000001461F280AD84EF20012CEF2C2
:1006000000020120136888401843106000207047E2
:100610003B294FF0010088BF70474EF2001220398D
:10062000CEF20002C9B253688840184350600020DF
:1006300070470000024603284FF001000FD0022A45
:1006400017D0012A18BF704741F21402C4F2020207
:10065000012013688840184310600020704741F261
:100660001402C4F20202536888401843506000200C
:10067000704741F21402C4F20202012093688840DC
:10068000184390600020704741F20401C4F2020157
:1006900051F8040C20F4802041F8040C51F8040CAB
:1006A00040F4803041F8040C51F8040C8003FBD571
:1006B000086840F001000860086820F00200086047
:1006C000086820F0F000086008680860086820F4F6
:1006D000E060086008680860086820F460500860FE
:1006E0000A6800200A6070474EF21001CEF2000145
:1006F000002048608860086840F0040008600868CE
:1007000040F0020200200A607047000040F63821E5
:10071000C0F6000151F82010C86820F48050C8606D
:10072000C86820F48060C860086920F440500861FF
:1007300008690861C86820F04000C860C86840F0D7
:100740002000C86040F241308860C86840F008006E
:10075000C860C86840F00400C860C86840F400522F
:100760000020CA6070470000002904BF01207047C4
:1007700040F63822C0F6000252F820004268D2B299
:100780000A80016821F0200101600020704700000C
:1007900000290FBF012040F29002C2F2000242F88D
:1007A000201018BF0020704780B500F001F880BD10
:1007B00082B041F204000021C4F2020001910091D4
:1007C00050F8041C41F4803140F8041C50F8041C1B
:1007D00001F400310091019901310191009919B999
:1007E0000199B1F5A06FF1D150F8041C890354BFF1
:1007F0000021012100910099012936D142F2000126
:10080000C4F202010A6842F010020A600A6822F08B
:1008100007020A600A6842F002020A600168016089
:1008200001680160016841F480610160016821F4A0
:100830007C110160016841F4E811016050F8041C6A
:1008400041F0807140F8041C50F8041C8901FBD56C
:10085000016821F003010160016841F002010160BB
:10086000016801F00C010829FAD102B070470000BC
:1008700080B540F2A800C2F200000068002818BF4E
:10088000804780BD80B541F20000C4F202000168DB
:10089000002241F0010101604168CFF6FF021140E2
:1008A000416001684FF6FF72CFF6F66211400160B9
:1008B000016821F480210160416821F4FE0141605A
:1008C0004FF41F018160FFF76FFF4EF60850CEF224
:1008D00000004FF00061016080BD000010B543F6DC
:1008E0000004C4F20104206840060BD4206880068E
:1008F00010D540F29000C2F20000016851B10068CA
:10090000804707E040F29C00C2F20000016809B194
:1009100000688047206820F040002060206820F0B8
:100920002000206010BD000010B544F20044C4F265
:100930000004206840060BD42068800610D540F2E1
:100940009000C2F20000416851B14068804707E062
:1009500040F29C00C2F20000416809B14068804743
:10096000206820F040002060206820F020002060F7
:1009700010BD000010B544F60004C4F20004206865
:1009800040060BD42068800610D540F29000C2F2D9
:100990000000816851B18068804707E040F29C0008
:1009A000C2F20000816809B180688047206820F0A9
:1009B00040002060206820F02000206010BD000072
:1009C00080B5012001210122FFF7B2FD01200221A3
:1009D0000022FFF7ADFD80BD80B50120012100227E
:1009E000FFF7A6FD012002210122FFF7A1FD80BD36
:1009F000FFF74AFE03200321FFF71CFE012001211F
:100A00000222FFF70FFD012002210222FFF70AFD5B
:100A1000FFF76AFE40F6C111C0F600010020FFF7A3
:100A2000BDFC40F6D911C0F600010120FFF7B6FC6D
:100A3000FFF748FCFEE7000000380140004400409A
:100A400000480040640A0008000000202C0000005C
:100A500028010008900A000830000020A0060000CD
:100A60004401000861636B6E6F776C656467656451
:100A70000000000000000000696E76616C6964206F
:100A8000636F6D6D616E6400000000000200000085
:040000050800018965
:00000001FF
