:020000040800F2
:10000000780600206D0100087501000877010008DE
:10001000790100087B0100087D0100080000000054
:100020000000000000000000000000007F01000848
:10003000810100080000000083010008490B00084E
:100040008701000887010008870100088701000870
:100050008701000887010008870100088701000860
:100060008701000887010008870100088701000850
:100070008701000887010008870100088701000840
:10008000870100088701000829020008870100088D
:100090008701000887010008870100088701000820
:1000A0008701000887010008870100088701000810
:1000B000B50B0008D90B0008FD0B000887010008EC
:1000C00087010008870100088701000887010008F0
:1000D00087010008870100088701000887010008E0
:1000E00087010008870100088701000800F002F876
:1000F00000F02CF80AA090E8000C82448344AAF196
:100100000107DA4501D100F021F8AFF2090EBAE893
:100110000F0013F0010F18BFFB1A43F0010318473B
:10012000B40B0000C40B00000023002400250026AF
:10013000103A28BF78C1FBD8520728BF30C148BF4A
:100140000B6070471FB51FBD10B510BD00F031F832
:100150001146FFF7F7FF00F069FD00F04FF803B418
:10016000FFF7F2FF03BC00F057F800000948804792
:1001700009480047FEE7FEE7FEE7FEE7FEE7FEE789
:10018000FEE7FEE7FEE7FEE704480549054A064BA1
:10019000704700005D0B0008ED00000878000020AB
:1001A000780600207802002078020020704770470F
:1001B0007047754600F02CF8AE4605006946534678
:1001C00020F00700854618B020B5FFF7DDFFBDE839
:1001D00020404FF000064FF000074FF000084FF0AE
:1001E000000BAC46ACE8C009ACE8C009ACE8C009FB
:1001F000ACE8C00921F007018D46704710B50446F0
:10020000AFF300802046BDE81040FFF7A8BF000014
:10021000004870470000002001491820ABBEFEE7EF
:10022000260002007047000080B542F20040C4F290
:100230000100016889070ED4D0F80004800709D5B1
:1002400040F26400C2F200004168002908BF80BD8E
:100250004068804780BD40F26400C2F2000001683F
:100260000029F7D00068804780BD000080B582B0CB
:100270000020ADF806000DF10601002000F04CF959
:1002800000F010F804A000F0FBF8BDF8060000F044
:10029000C1F802B080BD00BF4144432056616C7577
:1002A000653A200080B5012000F086F8002080BD6E
:1002B00080B501200021022200F088F901200121EF
:1002C000022200F083F901200A21022200F07EF9C7
:1002D00000200421022200F079F9002005210222E9
:1002E00000F074F900200621022200F06FF90020CE
:1002F0000721022200F06AF9232000F075FB02209A
:1003000000F05AF8052000F06FFB282000F054F8A8
:10031000052000F069FB0F2000F04EF8052000F0EA
:1003200063FBFFF7BFFF052000F05EFB802000F0BD
:1003300043F81E2000F058FB002080BD80B501204E
:100340000A21012200F0C8F9022000F04DFB012033
:100350000A21002200F0C0F9002080BD10B504463B
:1003600001200021012200F0B7F901200121002223
:1003700000F0B2F9052000F037FB2309002004212A
:10038000072200F0FBF8052000F02EFBFFF7D6FF58
:10039000052000F029FB04F00F03002004210722B0
:1003A00000F0ECF8052000F01FFBFFF7C7FF052069
:1003B00000F01AFB002010BD10B5044601200021FA
:1003C000002200F089F901200121002200F084F9C7
:1003D000052000F009FB230900200421072200F07A
:1003E000CDF8052000F000FBFFF7A8FF052000F086
:1003F000FBFA04F00F0300200421072200F0BEF8EE
:10040000052000F0F1FAFFF799FF052000F0ECFA63
:10041000002010BDB0B586B058B34CF6CD4E0021CB
:100420000124CCF6CC4E0DF1040C0591CDE903115D
:10043000CDE90111A0FB0E25ED08224605EB850450
:10044000A0EB440444F03004CBB20CF8034001317B
:10045000541C0A282846EDD208060DD0D4B20CEB65
:100460000400451E15F80109FFF778FF013CF9D19A
:1004700002E03020FFF772FF002006B0B0BD0000A0
:10048000B0B568B10446007840B10025C0B2FFF7AE
:1004900065FF0135E8B2205C0028F7D10020B0BD2F
:1004A0000120B0BD40F6CC41C0F6000151F820005B
:1004B000416821F47021416041684160416841F028
:1004C00020014160816821F002018160816821F48E
:1004D00000618160816841F480118160816821F44C
:1004E00060218160816841F460218160816841F010
:1004F00001018160816841F008018160816809071C
:10050000FCD4816841F00401816000BF8168490723
:10051000FCD4002070470000002904BF0120704770
:1005200040F6CC42C0F6000252F82000C06C0880B1
:100530000020704700290FBF012040F26402C2F280
:10054000000242F8201018BF0020704740F6CC424D
:10055000C0F6000252F82020D06A20F47000D06269
:10056000506B20F01F005063506B0843506390683D
:1005700040F4800100209160704700002DE9F041B7
:1005800006468A424FF001001BD3022E19D80D46B1
:1005900011430F2988BFBDE8F081501B01300106CF
:1005A00011D09846C7B2002428FA04F000F00102E6
:1005B0006019C1B2304600F08FF80134A742F3D180
:1005C0000020BDE8F0810020BDE8F08180B5022860
:1005D0000BD0012823D000287CD1072927D88800F8
:1005E0004FF00F0C40F6000364E0072939D840F6BD
:1005F0000443C4F2010388004FF00F0CD3F8FCE36E
:100600000CFA00F12EEA0101C3F8FC13D3F8FC1335
:1006100002FA00F00843C3F8FC03002080BD07295C
:100620003ED888004FF00F0C40F6000325E00F295C
:1006300050D840F600036FF01F00C4F2010300EB36
:1006400081004FF00F0CD3F804E00CFA00F12EEA11
:1006500001015960596802FA00F00843586000200F
:1006600080BD0F2984BF012080BD6FF01F0000EB0B
:1006700081004FF00F0C40F60443C4F20103D3F89D
:1006800000E40CFA00F12EEA0101C3F80014D3F8DB
:10069000001402FA00F00843C3F80004002080BDF3
:1006A0000F2917D86FF01F0000EB81004FF00F0CDF
:1006B00040F60443C4F20103D3F800E00CFA00F161
:1006C0002EEA01011960196802FA00F00843186067
:1006D000002080BD012080BD022898BF0F2901D9CC
:1006E00001207047022820D001280FD00028F7D120
:1006F0004FF0010062B3012A4ED140F60C02C4F261
:100700000102012013688840184329E04FF00100DE
:100710004AB3012A40D140F60C02C4F20102012082
:10072000D2F800348840184326E04FF001003AB375
:10073000012A18BF704740F60C02C4F201020120E2
:10074000D2F8003888401843C2F8000800207047EB
:1007500040F60C02C4F201021368884023EA00004C
:1007600010600020704740F60C02C4F20102D2F87B
:100770000034884023EA0000C2F8000400207047DB
:1007800040F60C02C4F20102D2F80038884023EA95
:100790000000C2F80008002070470000002904BFD4
:1007A000012070474FF0FF3202EBC000B0F5803FF0
:1007B00038BF024600200A807047000040F6C04162
:1007C000C0F6000151F8201040F2E732086820F02E
:1007D00002000860086820F004000860086820F043
:1007E00008000860086820F020000860086820F011
:1007F00040000860086820F010000860086840F0B9
:1008000080000860C86840F00100C86000208A626B
:100810007047000010B582B00A4604460020ADF8CB
:1008200006000DF106011046FFF7B8FF10B10120D8
:1008300002B010BD40F6C041C0F60001BDF8060090
:1008400051F82410C862002002B010BD00291EBF5C
:1008500040F26C02C2F2000242F820100120704700
:1008600040F6C041C0F6000151F82010086840F081
:10087000010200200A60704701461F280AD84EF284
:100880000012CEF200020120136888401843106065
:10089000002070473B294FF0010088BF70474EF29F
:1008A00000122039CEF20002C9B2536888401843C2
:1008B00050600020704700003B2826D84EF60C53AD
:1008C000CEF200031B689BB2A3F5407C4FF0FF33D0
:1008D00003EB3C23032B05D20CEB1C631B1299404A
:1008E000114304E04FEA3C23042B08D06BB94EF2CD
:1008F00000420901CEF2000281540120704711012B
:100900004EF20042CEF200028154012070470000F6
:10091000024603284FF001000FD0022A17D0012A07
:1009200018BF704741F21402C4F20202012013689A
:100930008840184310600020704741F21402C4F24E
:10094000020253688840184350600020704741F20B
:100950001402C4F202020120936888401843906098
:100960000020704741F20401C4F2020151F8040C66
:1009700020F4802041F8040C51F8040C40F480303D
:1009800041F8040C51F8040C8003FBD5086840F0D2
:1009900001000860086820F002000860086820F084
:1009A000F000086008680860086820F4E0600860EB
:1009B00008680860086820F4605008600A68002031
:1009C0000A6070474FF60051CFF6052101444FEA07
:1009D000312104298FBF01204EF60C51CEF20001C7
:1009E000086098BF0020704710B582B0002401A9AC
:1009F000019400F031F810B1012002B010BD4EF2A8
:100A00001001CEF20001086820F0010008608C603F
:100A100001984860086840F0010008600868C00359
:100A2000FCD5086820F0010008600020886048605C
:100A300002B010BD4EF21001CEF20001002048605D
:100A40008860086820F004000860086820F002024E
:100A500000200A6070470000002904BF0120704791
:100A60004FF47A7242430023100EB3EB126F18BF9B
:100A70000120B2F1807F28BF6FF07F420A6070478B
:100A800080B500F001F880BD82B041F20400002181
:100A9000C4F202000191009150F8041C41F480312D
:100AA00040F8041C50F8041C01F400310091019935
:100AB00001310191009919B90199B1F5A06FF1D1F6
:100AC00050F8041C890354BF0021012100910099B2
:100AD000012936D142F20001C4F202010A6842F053
:100AE00010020A600A6822F007020A600A6842F0EF
:100AF00002020A600168016001680160016841F456
:100B000080610160016821F47C110160016841F499
:100B1000E811016050F8041C41F0807140F8041C99
:100B200050F8041C8901FBD5016821F00301016024
:100B3000016841F002010160016801F00C0108291F
:100B4000FAD102B07047000080B540F26000C2F2F6
:100B500000000068002818BF804780BD80B541F2C2
:100B60000000C4F202000168002241F001010160AE
:100B70004168CFF6FF021140416001684FF6FF72F5
:100B8000CFF6F66211400160016821F48021016016
:100B9000416821F4FE0141604FF41F018160FFF7BD
:100BA0006FFF4EF60850CEF200004FF0006101607A
:100BB00080BD000080B540F26C00C2F20000016808
:100BC00009B1006880471020C4F20000016821F0DC
:100BD0000101016080BD000080B540F26C00C2F2EE
:100BE0000000416809B14068804740F21040C4F2FB
:100BF0000000016821F00101016080BD80B540F274
:100C00006C00C2F20000816809B18068804740F63C
:100C10001000C4F20000016821F00101016080BDF4
:100C200080B500200321FFF791FC80BDFFF79AFEFD
:100C300003200921FFF76CFE02200021FFF768FE68
:100C400003200221FFF764FE03200321FFF760FE6B
:100C5000FFF7F0FEFFF72CFB1220FFF70DFE1C2024
:100C6000FFF70AFE40F20030C0F2FA50FFF7AAFE8A
:100C7000122000210022FFF71FFE1C20012100226C
:100C8000FFF71AFE0020FFF799FD00204FF47A715C
:100C9000FFF7C0FD40F62141C0F600010020FFF73C
:100CA000D5FD40F26D21C0F600010020FFF742FCA7
:100CB0000020FFF7F7FB0020FFF7D2FDFEE7000062
:100CC00000000040000400400008004000240140F3
:100CD00000280140E40C0008000000207806000015
:040CE00028010008DF
:040000050800016D81
:00000001FF
