:020000040800F2
:1000000000280020D9060008290700082907000851
:100010002907000829070008290700080000000038
:100020000000000000000000000000002907000898
:100030002907000800000000290700082907000818
:1000400029070008290700082907000829070008D0
:1000500029070008290700082907000829070008C0
:1000600029070008290700082907000829070008B0
:1000700029070008290700082907000829070008A0
:100080002907000829070008290700082907000890
:100090002907000829070008290700082907000880
:1000A0002907000829070008290700082907000870
:1000B000AD060008290700082907000829070008DD
:1000C0002907000829070008290700082907000850
:1000D0002907000829070008290700082907000840
:1000E0002907000829070008000000002907000868
:1000F0002907000829070008290700082907000820
:10010000290700082907000829070008290700080F
:1001100029070008290700082907000829070008FF
:1001200029070008290700082907000829070008EF
:1001300010B5054C237833B9044B13B10448AFF321
:1001400000800123237010BD040000200000000087
:100150007407000808B5034B1BB103490348AFF30C
:10016000008008BD0000000008000020740700089F
:1001700080B485B000AF0346FB710B46BB711346DC
:100180007B710023FB73FB79012B40D0022B79D0CC
:10019000002B40F0B280BB79072B19D85E4B1B684F
:1001A000BA7992000F2101FA02F2D24311465A4A5B
:1001B0000B401360584B1B687979BA79920001FAA9
:1001C00002F21146544A0B4313600123FB7397E07C
:1001D000BB790F2B00F29480504B1B68BA79083A18
:1001E00092000F2101FA02F2D24311464B4A0B4012
:1001F00013604A4B1B687979BA79083A01FA02F21E
:100200001146464A0B4313600123FB7378E0BB7928
:10021000072B19D8424B1B68BA7992000F2101FABB
:1002200002F2D24311463E4A0B4013603C4B1B681E
:100230007979BA79920001FA02F21146384A0B43F1
:1002400013600123FB735DE0BB790F2B5AD8354B4C
:100250001B68BA79083A92000F2101FA02F2D243E0
:100260001146304A0B4013602E4B1B687979BA79DE
:10027000083A01FA02F211462A4A0B43136001239D
:10028000FB733FE0BB79072B19D8274B1B68BA7962
:1002900092000F2101FA02F2D2431146224A0B408A
:1002A0001360214B1B687979BA79920001FA02F246
:1002B00011461D4A0B4313600123FB7324E0BB79F5
:1002C0000F2B21D8194B1B68BA79083A92000F21DD
:1002D00001FA02F2D2431146144A0B401360134B49
:1002E0001B687979BA79083A01FA02F211460F4A85
:1002F0000B4313600123FB7306E00023FB7304E050
:1003000000BF02E000BF00E000BFFB7B18461437CF
:10031000BD4680BC704700BF000801400408014092
:10032000000C0140040C0140001001400410014089
:1003300080B485B000AF0346FB710B46BB7113461A
:100340007B710023FB73FB79022B79D8BB790F2BD0
:1003500076D8FB79012B27D0022B49D0002B6BD10B
:100360007B79012B0CD13A4B1B68BA79012101FA38
:1003700002F21146364A0B4313600123FB735EE021
:100380007B79002B0DD1324B1B68BA79012101FA20
:1003900002F2D24311462E4A0B4013600123FB7335
:1003A0004DE00023FB734AE07B79012B0CD1294BF4
:1003B0001B68BA79012101FA02F21146254A0B4362
:1003C00013600123FB733AE07B79002B0DD1214BA5
:1003D0001B68BA79012101FA02F2D24311461D4A83
:1003E0000B4013600123FB7329E00023FB7326E01D
:1003F0007B79012B0CD1184B1B68BA79012101FACA
:1004000002F21146144A0B4313600123FB7316E0FA
:100410007B79002B0DD1104B1B68BA79012101FAB1
:1004200002F2D24311460C4A0B4013600123FB73C6
:1004300005E00023FB7302E00023FB7300BF01E033
:100440000023FB73FB7B18461437BD4680BC704706
:100450000C0801400C0C01400C10014080B485B028
:1004600000AF0346FB710023FB73FB791F2B0CD8F5
:10047000134B1B68FA79012101FA02F21146104A66
:100480000B4313600123FB7314E0FB793B2B0FD864
:10049000FB79203BFB710A4B5B68FA79012101FA79
:1004A00002F21146064A0B4353600123FB7301E03D
:1004B0000023FB73FB7B18461437BD4680BC704796
:1004C00000E100E080B400AF254B1B68244A43F0F4
:1004D0000103136000BF224B1B685B0803F001039C
:1004E000002BF8D01F4B1B681E4A23F0010313603A
:1004F0001C4B1B681B4A23F002031360184B1B683C
:10050000174A43F08073136000BF154B1B685B0EE6
:1005100003F00103002BF8D0124B1B68114A23F0A3
:10052000F00313600F4B0F4A1B6813600D4B1B68E1
:100530000C4A23F4E06313600A4B0A4A1B681360F9
:10054000084B1B68074A23F460531360054B054AA8
:100550001B68136001231846BD4680BC704700BF6E
:10056000001002400410024080B485B000AF034682
:100570000A46FB711346BB710023FB73FB79022B08
:1005800010D0032B1BD0012B26D1184B1B68BA7936
:10059000012101FA02F21146144A0B4313600123B0
:1005A000FB731CE0124B1B68BA79012101FA02F2BD
:1005B00011460F4A0B4313600123FB730FE00D4BF1
:1005C0001B68BA79012101FA02F21146094A0B436C
:1005D00013600123FB7302E00023FB7300BFFB7B6E
:1005E00018461437BD4680BC704700BF1410024047
:1005F0001C1002401810024080B500AFFFF762FFE8
:1006000000210220FFF7B0FF02210320FFF7ACFF1B
:10061000022200210020FFF7ABFD1C20FFF71EFF88
:100620004FF0804301229A624FF08043DB684FF025
:10063000804243F00103D3604FF080434FF47A626D
:10064000DA62184B00221A604FF0804300225A628F
:100650004FF080431B684FF0804243F0010313606A
:10066000012200210020FFF763FE00BF0D4B1B6835
:10067000002BFBD04FF080431B684FF0804223F0EB
:1006800001031360084B1B68002B05D1064B1B6848
:100690000133054A1360F5E7034B1B68013B024A2F
:1006A0001360EFE7200000200000002080B500AFBD
:1006B000084B01221A60002200210020FFF738FEBB
:1006C0004FF080431B694FF0804223F00103136118
:1006D00000BF80BD200000200D488546AFF300809C
:1006E0000C480D490D4A002302E0D458C45004338D
:1006F000C4188C42F9D30A4A0A4C002301E0136063
:100700000432A242FBD300F011F8FFF775FFFEE7B9
:1007100000280020000000200400002094070008AA
:100720000400002024000020FEE7000070B5002532
:100730000C4E0D4CA41BA410A54209D100F01AF8D0
:1007400000250A4E0A4CA41BA410A54205D170BD79
:1007500056F8253098470135EEE756F8253098478A
:100760000135F2E78C0700088C0700088C070008A9
:1007700090070008F8B500BFF8BC08BC9E4670475B
:0C078000F8B500BFF8BC08BC9E467047EE
:04078C00550100080B
:04079000310100082B
:040794000100000060
:04000005080006D910
:00000001FF
