:020000040800F2
:10000000B00600206D0100087501000877010008A6
:10001000790100087B0100087D0100080000000054
:100020000000000000000000000000007F01000848
:10003000810100080000000083010008850100081C
:100040008701000887010008870100088701000870
:10005000870100088701000829020008250300081D
:10006000490300086D030008910300088701000898
:100070008701000887010008870100088701000840
:100080008701000887010008870100088701000830
:10009000870100088701000887010008B5030008F0
:1000A0008701000887010008870100088701000810
:1000B0008701000887010008870100088701000800
:1000C00087010008870100088701000887010008F0
:1000D00087010008870100088701000887010008E0
:1000E0004D020008870100088701000800F002F8AF
:1000F00000F02CF80AA090E8000C82448344AAF196
:100100000107DA4501D100F021F8AFF2090EBAE893
:100110000F0013F0010F18BFFB1A43F0010318473B
:100120008C0800009C080000002300240025002605
:10013000103A28BF78C1FBD8520728BF30C148BF4A
:100140000B6070471FB51FBD10B510BD00F031F832
:100150001146FFF7F7FF00F0DFFB00F04FF803B4A4
:10016000FFF7F2FF03BC00F057F800000948804792
:1001700009480047FEE7FEE7FEE7FEE7FEE7FEE789
:10018000FEE7FEE7FEE7FEE704480549054A064BA1
:1001900070470000C1080008ED000008B000002012
:1001A000B0060020B0020020B00200207047704767
:1001B0007047754600F02CF8AE4605006946534678
:1001C00020F00700854618B020B5FFF7DDFFBDE839
:1001D00020404FF000064FF000074FF000084FF0AE
:1001E000000BAC46ACE8C009ACE8C009ACE8C009FB
:1001F000ACE8C00921F007018D46704710B50446F0
:10020000AFF300802046BDE81040FFF7A8BF000014
:10021000004870470000002001491820ABBEFEE7EF
:10022000260002007047000080B540F26000C2F274
:100230000000016809B10068804740F21440C4F230
:100240000100016841F00101016080BD10B540F27C
:100250001444C4F20104206840051AD42068000543
:1002600022D42068C0042DD42068800438D42068AB
:10027000400443D42068000458BF10BD40F2600021
:10028000C2F20000C16B09B1C06B80474FF400405F
:1002900044E040F26000C2F20000816A79B1806AF5
:1002A00080474FF4806039E040F26000C2F2000005
:1002B000C16A91B1C06A80474FF400602EE04FF4EC
:1002C00080602BE040F26000C2F20000016B91B14F
:1002D000006B80474FF4805020E04FF400601DE039
:1002E00040F26000C2F20000416B91B1406B804768
:1002F0004FF4005012E04FF480500FE040F26000E5
:10030000C2F20000816B39B1806B80474FF48040AE
:1003100004E04FF4005001E04FF4804021680843AE
:10032000206010BD80B540F26000C2F2000041685C
:1003300009B14068804740F21440C4F201000168EE
:1003400041F00201016080BD80B540F26000C2F260
:100350000000816809B18068804740F21440C4F20F
:100360000100016841F00401016080BD80B540F2E8
:100370006000C2F20000C16809B1C068804740F265
:100380001440C4F20100016841F00801016080BD21
:1003900080B540F26000C2F20000016909B1006955
:1003A000804740F21440C4F20100016841F010019E
:1003B000016080BD10B540F21444C4F2010420680D
:1003C000800617D4206840061ED42068000627D473
:1003D0002068C00530D42068800558BF10BD40F2A9
:1003E0006000C2F20000416A09B1406A80474FF4E0
:1003F000007030E040F26000C2F20000416969B173
:1004000040698047202026E040F26000C2F20000F0
:10041000816979B18069804740201CE020201AE082
:1004200040F26000C2F20000C16981B1C06980473A
:10043000802010E040200EE040F26000C2F2000098
:10044000016A31B1006A80474FF4807003E0802078
:1004500001E04FF4807021680843206010BD000067
:1004600080B50020072100F019F980BD80B500207B
:10047000052100F013F980BD0F2898BF062901D986
:100480000120704710B50C22082402EA800200F017
:10049000FC00C4F201044FF00F0C50F804E00CFA19
:1004A00002F32EEA0303035103599140194301510A
:1004B000BDE810400120704713284FF0010298BF9B
:1004C000022901D91046704740F208420229C4F2BD
:1004D000010208D001290DD089B90121136881409A
:1004E000194311600BE00121136881400B43136035
:1004F000536802E001215368814019435160012192
:1005000052F8083C01FA00F0184342F8080C0022A7
:100510001046704713289EBF40F26002C2F20002EC
:1005200042F8201001207047022898BF0F2901D9F6
:1005300001207047024602284FF001000FD0012A27
:1005400019D0002A18BF704740F60C02C4F201020D
:10055000012013688840184310600020704740F65F
:100560000C02C4F20102D2F8003888401843C2F8E5
:1005700000080020704740F60C02C4F2010201207E
:10058000D2F8003488401843C2F8000400207047B5
:1005900080B502280BD0012823D000287CD1072960
:1005A00027D888004FF00F0C40F6000364E00729BD
:1005B00039D840F60443C4F2010388004FF00F0C11
:1005C000D3F8FCE30CFA00F12EEA0101C3F8FC13A6
:1005D000D3F8FC1302FA00F00843C3F8FC03002030
:1005E00080BD07293ED888004FF00F0C40F600036D
:1005F00025E00F2950D840F600036FF01F00C4F229
:10060000010300EB81004FF00F0CD3F804E00CFA6B
:1006100000F12EEA01015960596802FA00F008431E
:100620005860002080BD0F2984BF012080BD6FF07D
:100630001F0000EB81004FF00F0C40F60443C4F2A2
:100640000103D3F800E40CFA00F12EEA0101C3F82B
:100650000014D3F8001402FA00F00843C3F80004B1
:10066000002080BD0F2917D86FF01F0000EB81001C
:100670004FF00F0C40F60443C4F20103D3F800E03E
:100680000CFA00F12EEA01011960196802FA00F073
:1006900008431860002080BD012080BD022898BF5B
:1006A0000F2901D901207047024602284FF00100AE
:1006B0000FD0012A19D0002A18BF704740F60C024B
:1006C000C4F20102012013688840584010600020E5
:1006D000704740F60C02C4F20102D2F8003888409C
:1006E0005840C2F800080020704740F60C02C4F2DF
:1006F00001020120D2F8003488405840C2F80004BA
:100700000020704701461F280AD84EF20012CEF290
:1007100000020120136888401843106000207047D1
:100720003B294FF0010088BF70474EF2001220397C
:10073000CEF20002C9B253688840184350600020CE
:1007400070470000024603284FF001000FD0022A34
:1007500017D0012A18BF704741F21402C4F20202F6
:10076000012013688840184310600020704741F250
:100770001402C4F2020253688840184350600020FB
:10078000704741F21402C4F20202012093688840CB
:10079000184390600020704741F20401C4F2020146
:1007A00051F8040C20F4802041F8040C51F8040C9A
:1007B00040F4803041F8040C51F8040C8003FBD560
:1007C000086840F001000860086820F00200086036
:1007D000086820F0F000086008680860086820F4E5
:1007E000E060086008680860086820F460500860ED
:1007F0000A6800200A60704780B500F001F880BDEB
:1008000082B041F204000021C4F202000191009183
:1008100050F8041C41F4803140F8041C50F8041CCA
:1008200001F400310091019901310191009919B948
:100830000199B1F5A06FF1D150F8041C890354BFA0
:100840000021012100910099012936D142F20001D5
:10085000C4F202010A6842F010020A600A6822F03B
:1008600007020A600A6842F002020A600168016039
:1008700001680160016841F480610160016821F450
:100880007C110160016841F4E811016050F8041C1A
:1008900041F0807140F8041C50F8041C8901FBD51C
:1008A000016821F003010160016841F0020101606B
:1008B000016801F00C010829FAD102B0704700006C
:1008C00080B541F20000C4F202000168002241F04C
:1008D000010101604168CFF6FF02114041600168EB
:1008E0004FF6FF72CFF6F66211400160016821F405
:1008F00080210160416821F4FE0141604FF41F0135
:100900008160FFF779FF4EF60850CEF200004FF0FD
:100910000061016080BD0000FFF73EFF032002215F
:10092000FFF710FF03200421FFF70CFF0020052133
:100930000222FFF72DFE2820FFF7E4FE002005210C
:100940000222FFF725FE02200D210822FFF720FEDC
:1009500002200D21FFF7E8FD02200F210822FFF7FA
:1009600017FE002007210222FFF712FE0D200221B0
:10097000FFF782FD0F200221FFF77EFD40F261416B
:10098000C0F600010D20FFF7C5FD40F26D41C0F635
:1009900000010F20FFF7BEFD0F200021FFF78CFDA7
:1009A0000D200121FFF788FDFEE70000BC090008CB
:0C09B00000000020B00600002801000834
:040000050800016D81
:00000001FF
