:020000040800F2
:10000000700600206D0100087501000877010008E6
:10001000790100087B0100087D0100080000000054
:100020000000000000000000000000007F01000848
:10003000810100080000000083010008850100081C
:100040008701000887010008870100088701000870
:100050008701000887010008870100088701000860
:100060008701000887010008870100088701000850
:100070008701000887010008870100088701000840
:100080008701000887010008870100088701000830
:100090008701000887010008870100088701000820
:1000A0008701000887010008870100088701000810
:1000B0008701000887010008870100088701000800
:1000C00087010008870100088701000887010008F0
:1000D00087010008F5070008210800084D080008FE
:1000E00087010008870100088701000800F002F876
:1000F00000F02CF80AA090E8000C82448344AAF196
:100100000107DA4501D100F021F8AFF2090EBAE893
:100110000F0013F0010F18BFFB1A43F0010318473B
:10012000080800001808000000230024002500260D
:10013000103A28BF78C1FBD8520728BF30C148BF4A
:100140000B6070471FB51FBD10B510BD00F031F832
:100150001146FFF7F7FF00F08FFB00F04FF803B4F4
:10016000FFF7F2FF03BC00F057F800000948804792
:1001700009480047FEE7FEE7FEE7FEE7FEE7FEE789
:10018000FEE7FEE7FEE7FEE704480549054A064BA1
:10019000704700009D070008ED0000087000002077
:1001A0007006002070020020700200207047704727
:1001B0007047754600F02CF8AE4605006946534678
:1001C00020F00700854618B020B5FFF7DDFFBDE839
:1001D00020404FF000064FF000074FF000084FF0AE
:1001E000000BAC46ACE8C009ACE8C009ACE8C009FB
:1001F000ACE8C00921F007018D46704710B50446F0
:10020000AFF300802046BDE81040FFF7A8BF000014
:10021000004870470000002001491820ABBEFEE7EF
:100220002600020070470000B0B582B000240DF136
:1002300006010020ADF8064000F000FABDF80610F7
:10024000002000F01BFABDF80600312808D0322843
:1002500015D140F60415C0F600050124002201E086
:1002600008A501220120002100F0D6F8012001217B
:10027000224600F0D1F80020294600F015FA02B01D
:10028000B0BD00BF526564204C4544205375636384
:1002900065737366756C6C79205475726E65642035
:1002A0004F6E0000022898BF0F2901D90120704726
:1002B000024602284FF001000FD0012A19D0002A6F
:1002C00018BF704740F60C02C4F201020120136807
:1002D0008840184310600020704740F60C02C4F2BA
:1002E0000102D2F8003888401843C2F80008002004
:1002F000704740F60C02C4F201020120D2F800342B
:1003000088401843C2F800040020704780B50228D6
:100310000BD0012823D000287CD1072927D88800BA
:100320004FF00F0C40F6000364E0072939D840F67F
:100330000443C4F2010388004FF00F0CD3F8FCE330
:100340000CFA00F12EEA0101C3F8FC13D3F8FC13F8
:1003500002FA00F00843C3F8FC03002080BD07291F
:100360003ED888004FF00F0C40F6000325E00F291F
:1003700050D840F600036FF01F00C4F2010300EBF9
:1003800081004FF00F0CD3F804E00CFA00F12EEAD4
:1003900001015960596802FA00F0084358600020D2
:1003A00080BD0F2984BF012080BD6FF01F0000EBCE
:1003B00081004FF00F0C40F60443C4F20103D3F860
:1003C00000E40CFA00F12EEA0101C3F80014D3F89E
:1003D000001402FA00F00843C3F80004002080BDB6
:1003E0000F2917D86FF01F0000EB81004FF00F0CA2
:1003F00040F60443C4F20103D3F800E00CFA00F124
:100400002EEA01011960196802FA00F00843186029
:10041000002080BD012080BD022898BF0F2901D98E
:1004200001207047022820D001280FD00028F7D1E2
:100430004FF0010062B3012A4ED140F60C02C4F223
:100440000102012013688840184329E04FF00100A1
:100450004AB3012A40D140F60C02C4F20102012045
:10046000D2F800348840184326E04FF001003AB338
:10047000012A18BF704740F60C02C4F201020120A5
:10048000D2F8003888401843C2F8000800207047AE
:1004900040F60C02C4F201021368884023EA00000F
:1004A00010600020704740F60C02C4F20102D2F83E
:1004B0000034884023EA0000C2F80004002070479E
:1004C00040F60C02C4F20102D2F80038884023EA58
:1004D0000000C2F8000800207047000001461F28F5
:1004E0000AD84EF20012CEF20002012013688840B2
:1004F00018431060002070473B294FF0010088BF6F
:1005000070474EF200122039CEF20002C9B2536891
:1005100088401843506000207047000002460328BE
:100520004FF001000FD0022A17D0012A18BF7047E0
:1005300041F21402C4F202020120136888401843F9
:1005400010600020704741F21402C4F202025368A6
:100550008840184350600020704741F21402C4F2F2
:100560000202012093688840184390600020704781
:1005700041F20401C4F2020151F8040C20F480207D
:1005800041F8040C51F8040C40F4803041F8040C9C
:1005900051F8040C8003FBD5086840F001000860A6
:1005A000086820F002000860086820F0F000086089
:1005B00008680860086820F4E0600860086808605F
:1005C000086820F4605008600A6800200A607047DC
:1005D00040F6F801C0F6000151F82010C86820F478
:1005E0008050C860C86820F48060C860086920F442
:1005F0004050086108690861C86820F04000C86080
:10060000C86840F02000C86040F241308860C86887
:1006100040F00800C860C86840F00400C860C868BE
:1006200040F40050C860086820F040000860086886
:1006300020F0200200200A6070470000002904BF5B
:100640000120704740F6F802C0F6000252F8200080
:100650004268D2B20A80016821F0200101600020C6
:100660007047000000290FBF012040F26002C2F273
:10067000000242F8201018BF0020704740F6F80230
:10068000C0F6000252F8202010680006FCD5C8B25F
:10069000506000BF10684006FCD5106820F0400193
:1006A000002011607047000070B581B105460878E0
:1006B0000C4650B1002600BFC1B22846FFF7DEFF4E
:1006C0000136F0B2205C0028F6D1002070BD012078
:1006D00070BD000080B500F001F880BD82B041F22D
:1006E00004000021C4F202000191009150F8041CA2
:1006F00041F4803140F8041C50F8041C01F400312E
:100700000091019901310191009919B90199B1F54F
:10071000A06FF1D150F8041C890354BF00210121BE
:1007200000910099012936D142F20001C4F2020180
:100730000A6842F010020A600A6822F007020A60A2
:100740000A6842F002020A60016801600168016003
:10075000016841F480610160016821F47C1101604D
:10076000016841F4E811016050F8041C41F0807107
:1007700040F8041C50F8041C8901FBD5016821F0E5
:1007800003010160016841F002010160016801F0AC
:100790000C010829FAD102B07047000080B541F27F
:1007A0000000C4F202000168002241F00101016072
:1007B0004168CFF6FF021140416001684FF6FF72B9
:1007C000CFF6F66211400160016821F480210160DA
:1007D000416821F4FE0141604FF41F018160FFF781
:1007E00079FF4EF60850CEF200004FF00061016034
:1007F00080BD000080B540F26000C2F200000168D8
:1008000009B10068804743F60000C4F201000168A6
:1008100021F040010160016821F02001016080BDEC
:1008200080B540F26000C2F20000416809B1406842
:10083000804744F20040C4F20000016821F040010A
:100840000160016821F02001016080BD80B540F2A7
:100850006000C2F20000816809B18068804744F6F8
:100860000000C4F20000016821F04001016001684D
:1008700021F02001016080BDFFF77AFE03200E21E8
:10088000FFF74CFE03200221FFF748FE032003215F
:10089000FFF744FE03200021FFF740FE0420C4F2CE
:1008A0000100016841F0040101602520FFF716FEF8
:1008B000012006210A22FFF729FD01200721082235
:1008C000FFF724FD01200721FFF7ECFC01200021A8
:1008D0000222FFF71BFD012001210222FFF716FD76
:1008E00040F22921C0F600010020FFF7BBFE0020E6
:1008F000FFF76EFEFEE700000038014000440040B4
:100900000048004059656C6C6F77204C454420537B
:1009100075636365737366756C6C79205475726E5C
:100920006564204F6E0000003809000800000020B8
:08093000700600002801000818
:040000050800016D81
:00000001FF
