:020000040800F2
:10000000780600206D0100087501000877010008DE
:10001000790100087B0100087D0100080000000054
:100020000000000000000000000000007F01000848
:10003000810100080000000083010008850100081C
:100040008701000887010008870100088701000870
:100050008701000887010008870100088701000860
:100060008701000887010008870100088701000850
:100070008701000887010008870100088701000840
:100080008701000887010008870100088701000830
:100090008701000887010008870100088701000820
:1000A0008701000887010008870100088701000810
:1000B0008701000887010008870100088701000800
:1000C00087010008870100088701000887010008F0
:1000D0008701000891070008D107000815080008EB
:1000E00087010008870100088701000800F002F876
:1000F00000F02CF80AA090E8000C82448344AAF196
:100100000107DA4501D100F021F8AFF2090EBAE893
:100110000F0013F0010F18BFFB1A43F0010318473B
:1001200014080000240800000023002400250026F5
:10013000103A28BF78C1FBD8520728BF30C148BF4A
:100140000B6070471FB51FBD10B510BD00F031F832
:100150001146FFF7F7FF00F07DFB00F04FF803B406
:10016000FFF7F2FF03BC00F057F800000948804792
:1001700009480047FEE7FEE7FEE7FEE7FEE7FEE789
:10018000FEE7FEE7FEE7FEE704480549054A064BA1
:100190007047000039070008ED00000878000020D3
:1001A000780600207802002078020020704770470F
:1001B0007047754600F02CF8AE4605006946534678
:1001C00020F00700854618B020B5FFF7DDFFBDE839
:1001D00020404FF000064FF000074FF000084FF0AE
:1001E000000BAC46ACE8C009ACE8C009ACE8C009FB
:1001F000ACE8C00921F007018D46704710B50446F0
:10020000AFF300802046BDE81040FFF7A8BF000014
:10021000004870470000002001491820ABBEFEE7EF
:10022000260002007047000080B582B00020ADF8C3
:1002300006000DF10601012000F0D2F9BDF806100C
:10024000012000F0E9F9BDF8060032280AD0312873
:1002500010D101200021012200F0B8F80120012175
:1002600000220AE001200021002200F0AFF8012066
:10027000012101E001200021012200F0A7F802B0D5
:1002800080BD000010B5022834D001281AD0002803
:100290001CBF012010BD072944D840F60003C4F25A
:1002A000010388004FF00F0CD3F800E00CFA00F1C6
:1002B0002EEA01011960196802FA00F0084318607B
:1002C000002010BD072948D840F60003C4F20103FE
:1002D00088000F21D3F80044814024EA0101C3F8CB
:1002E0000014D3F8001402FA00F00843C3F8000425
:1002F000002010BD07294AD840F60443C4F2010388
:1003000088000F21D3F8FC43814024EA0101C3F89F
:10031000FC13D3F8FC1302FA00F00843C3F8FC0303
:10032000002010BD0F2984BF012010BD40F600033E
:10033000A1F10800C4F201034FEA800E4FF00F0C48
:100340005C680CFA0EF124EA01015960596802FA5E
:1003500000F008435860002010BD0F2984BF012021
:1003600010BD40F60444A1F10800C4F2010481006C
:100370004FF00F0C23680CFA01F123EA0101216010
:10038000216802FA00F008432060002010BD0F2908
:1003900084BF012010BD40F60444A1F10800C4F25E
:1003A000010481004FF00F0CD4F800340CFA01F175
:1003B00023EA0101C4F80014D4F8001402FA00F092
:1003C0000843C4F80004002010BD0000022898BFB4
:1003D0000F2901D901207047022820D001280FD011
:1003E0000028F7D14FF0010062B3012A4ED140F648
:1003F0000C02C4F20102012013688840184329E06E
:100400004FF001004AB3012A40D140F60C02C4F279
:1004100001020120D2F800348840184326E04FF052
:1004200001003AB3012A18BF704740F60C02C4F22B
:1004300001020120D2F8003888401843C2F80008B1
:100440000020704740F60C02C4F201021368884095
:1004500023EA000010600020704740F60C02C4F24E
:100460000102D2F80034884023EA0000C2F80004F8
:100470000020704740F60C02C4F20102D2F80038A6
:10048000884023EA0000C2F80008002070470000FE
:1004900001461F280AD84EF20012CEF200020120B7
:1004A0001368884018431060002070473B294FF0C4
:1004B000010088BF70474EF200122039CEF20002D0
:1004C000C9B253688840184350600020704700004C
:1004D000024603284FF001000FD0022A17D0012A4C
:1004E00018BF704741F21402C4F2020201201368DF
:1004F0008840184310600020704741F21402C4F293
:10050000020253688840184350600020704741F24F
:100510001402C4F2020201209368884018439060DC
:100520000020704741F20401C4F2020151F8040CAA
:1005300020F4802041F8040C51F8040C40F4803081
:1005400041F8040C51F8040C8003FBD5086840F016
:1005500001000860086820F002000860086820F0C8
:10056000F000086008680860086820F4E06008602F
:1005700008680860086820F4605008600A68002075
:100580000A60704740F62811C0F6000151F82010AB
:10059000C86820F48050C860C86820F48060C860D3
:1005A000086920F44050086108690861C86820F0B3
:1005B0004000C860C86840F02000C86040F2413088
:1005C0008860C86840F00800C860C86840F004004F
:1005D000C860C86840F400520020CA60704700003C
:1005E000002904BF0120704740F62812C0F600021F
:1005F00052F820004068C0B2088000207047000018
:1006000000290FBF012040F26002C2F2000242F84E
:10061000201018BF0020704740F62812C0F60002D4
:1006200052F8200002681206FCD5C9B2416000BF32
:1006300001684906FCD5002070470000002904BF6E
:100640000120704770B5044608780D4648B1002671
:10065000C1B22046FFF7E0FF0136F0B2285C002867
:10066000F6D120460D21FFF7D7FF002070BD000016
:1006700080B500F001F880BD82B041F20400002195
:10068000C4F202000191009150F8041C41F4803141
:1006900040F8041C50F8041C01F400310091019949
:1006A00001310191009919B90199B1F5A06FF1D10A
:1006B00050F8041C890354BF0021012100910099C6
:1006C000012936D142F20001C4F202010A6842F067
:1006D00010020A600A6822F007020A600A6842F003
:1006E00002020A600168016001680160016841F46A
:1006F00080610160016821F47C110160016841F4AE
:10070000E811016050F8041C41F0807140F8041CAD
:1007100050F8041C8901FBD5016821F00301016038
:10072000016841F002010160016801F00C01082933
:10073000FAD102B07047000080B541F20000C4F267
:1007400002000168002241F0010101604168CFF61A
:10075000FF021140416001684FF6FF72CFF6F6626A
:1007600011400160016821F480210160416821F499
:10077000FE0141604FF41F018160FFF779FF4EF6E3
:100780000850CEF200004FF00061016080BD000013
:1007900080B543F60000C4F20100016849060DD49B
:1007A0000068800609D540F26000C2F200000168CE
:1007B000002908BF80BD0068804780BD40F26C0002
:1007C000C2F2000001680029F7D00068804780BDB0
:1007D000B0B540F26004C2F20004606844F2004523
:1007E000C4F2000580472868400609D428688006BE
:1007F00005D56068002808BFB0BD60688047B0BDFF
:1008000040F26C00C2F2000041680029F7D0406855
:100810008047B0BD80B544F60000C4F20000016816
:1008200049060DD40068800609D540F26000C2F286
:1008300000008168002908BF80BD8068804780BDB6
:1008400040F26C00C2F2000081680029F7D0806895
:10085000804780BDFFF766FE02201121FFF738FEBA
:1008600003200221FFF734FE03200321FFF730FEAF
:100870002620FFF70DFE002002210A22FFF702FDCD
:10088000002003210A22FFF7FDFC012000210222A3
:10089000FFF7F8FC012001210222FFF7F3FC40F2F0
:1008A0002921C0F600010120FFF7AAFE0120FFF771
:1008B00069FE09A10120FFF7C1FE0BA10120FFF78E
:1008C000BDFE12A10120FFF7B9FE13A10120FFF721
:1008D000B5FE00BFFEE700BF48656C6C6F21205776
:1008E000656C636F6D650000506C656173652043D6
:1008F000686F6F7365204F6E65206F662074686542
:10090000206F7074696F6E7300000000312E2052EA
:100910006564204C45440000322E2059656C6C6F94
:1009200077204C454400000000380140004400405E
:10093000004800404409000800000020780600003C
:040940002801000882
:040000050800016D81
:00000001FF
