:020000040800F2
:10000000700600206D0100087501000877010008E6
:10001000790100087B0100087D0100080000000054
:100020000000000000000000000000007F01000848
:100030008101000800000000830100088508000815
:100040008701000887010008870100088701000870
:100050008701000887010008870100088701000860
:100060008701000887010008870100088701000850
:100070008701000887010008870100088701000840
:10008000870100088701000829020008870100088D
:100090008701000887010008870100088701000820
:1000A0008701000887010008870100088701000810
:1000B0008701000887010008870100088701000800
:1000C00087010008870100088701000887010008F0
:1000D0008701000805090008310900085D090008CA
:1000E00087010008870100088701000800F002F876
:1000F00000F02CF80AA090E8000C82448344AAF196
:100100000107DA4501D100F021F8AFF2090EBAE893
:100110000F0013F0010F18BFFB1A43F0010318473B
:10012000080900001809000000230024002500260B
:10013000103A28BF78C1FBD8520728BF30C148BF4A
:100140000B6070471FB51FBD10B510BD00F031F832
:100150001146FFF7F7FF00F017FC00F04FF803B46B
:10016000FFF7F2FF03BC00F057F800000948804792
:1001700009480047FEE7FEE7FEE7FEE7FEE7FEE789
:10018000FEE7FEE7FEE7FEE704480549054A064BA1
:1001900070470000AD080008ED0000087000002066
:1001A0007006002070020020700200207047704727
:1001B0007047754600F02CF8AE4605006946534678
:1001C00020F00700854618B020B5FFF7DDFFBDE839
:1001D00020404FF000064FF000074FF000084FF0AE
:1001E000000BAC46ACE8C009ACE8C009ACE8C009FB
:1001F000ACE8C00921F007018D46704710B50446F0
:10020000AFF300802046BDE81040FFF7A8BF000014
:10021000004870470000002001491820ABBEFEE7EF
:10022000260002007047000080B542F20040C4F290
:100230000100016889070BD4D0F80004800706D5B7
:1002400004200168002908BF80BD0068804780BD88
:10025000002001680029FAD00068804780BD0000B6
:1002600080B582B00020ADF806000DF10601002037
:1002700000F056F807A1002000F076FABDF806104D
:10028000002000F023FA00200D2100F057FA02B000
:1002900080BD00BF4144432056616C75653A200023
:1002A00080B50020022100F051F880BD40F62021E9
:1002B000C0F6000151F82000416821F4702141602E
:1002C00041684160416841F020014160816821F04E
:1002D00002018160816821F400618160816841F4DC
:1002E00080118160816821F460218160816841F41E
:1002F00060218160816841F001018160816841F085
:100300000801816081680907FCD4816841F004011B
:10031000816000BF81684907FCD40020704700005D
:10032000002904BF0120704740F62022C0F60002D9
:1003300052F82000C06C08800020704700290FBFD1
:1003400001208000016000207047000040F620225C
:10035000C0F6000252F82020D06A20F47000D0626B
:10036000506B20F01F005063506B0843506390683F
:1003700040F480010020916070470000022898BF7F
:100380000F2901D901207047024602284FF00100D1
:100390000FD0012A19D0002A18BF704740F60C026E
:1003A000C4F2010201201368884018431060002045
:1003B000704740F60C02C4F20102D2F800388840BF
:1003C0001843C2F800080020704740F60C02C4F23F
:1003D00001020120D2F8003488401843C2F800041A
:1003E0000020704780B502280BD0012823D00028B8
:1003F0007CD1072927D888004FF00F0C40F6000366
:1004000064E0072939D840F60443C4F201038800A8
:100410004FF00F0CD3F8FCE30CFA00F12EEA0101C7
:10042000C3F8FC13D3F8FC1302FA00F00843C3F836
:10043000FC03002080BD07293ED888004FF00F0C38
:1004400040F6000325E00F2950D840F600036FF076
:100450001F00C4F2010300EB81004FF00F0CD3F832
:1004600004E00CFA00F12EEA01015960596802FA21
:1004700000F008435860002080BD0F2984BF012090
:1004800080BD6FF01F0000EB81004FF00F0C40F6B5
:100490000443C4F20103D3F800E40CFA00F12EEA9D
:1004A0000101C3F80014D3F8001402FA00F0084365
:1004B000C3F80004002080BD0F2917D86FF01F007B
:1004C00000EB81004FF00F0C40F60443C4F201032F
:1004D000D3F800E00CFA00F12EEA01011960196866
:1004E00002FA00F008431860002080BD012080BDA2
:1004F00001461F280AD84EF20012CEF20002012057
:100500001368884018431060002070473B294FF063
:10051000010088BF70474EF200122039CEF200026F
:10052000C9B25368884018435060002070470000EB
:10053000024603284FF001000FD0022A17D0012AEB
:1005400018BF704741F21402C4F20202012013687E
:100550008840184310600020704741F21402C4F232
:10056000020253688840184350600020704741F2EF
:100570001402C4F20202012093688840184390607C
:100580000020704741F20401C4F2020151F8040C4A
:1005900020F4802041F8040C51F8040C40F4803021
:1005A00041F8040C51F8040C8003FBD5086840F0B6
:1005B00001000860086820F002000860086820F068
:1005C000F000086008680860086820F4E0600860CF
:1005D00008680860086820F4605008600A68002015
:1005E0000A6070474EF21001CEF20001086820F058
:1005F00001000860002048608860086820F004005E
:100600000860086840F0020200200A60704700009D
:1006100000280FBF012040F26C01C2F20001086007
:1006200018BF00207047000080B582B00021019102
:1006300001A900F0AFF810B1012002B080BD01980F
:100640004EF21401CEF200010860002002B080BD1D
:100650004EF21001CEF20001086840F001020020C5
:100660000A60704740F61421C0F6000151F82010CE
:10067000C86820F48050C860C86820F48060C860F2
:10068000086920F44050086108690861C86820F0D2
:100690004000C860C86820F02000C860452088601D
:1006A000C86840F00800C860C86840F00400C8602E
:1006B000C86840F40050C860086820F04000086036
:1006C000086820F0200200200A6070472DE9F04100
:1006D00086B0804651B34CF6CD4300200125CCF6C0
:1006E000CC4301AA0590CDE90300CDE9010000BF8C
:1006F000A1FB0364E4082E4604EB8405A1EB450549
:1007000045F03005C7B2D5550130751C0A29214680
:10071000EED200060ED0F5B25019461E16F8011999
:10072000404600F00BF8013DF8D103E0404630218F
:1007300000F004F8002006B0BDE8F08140F6142275
:10074000C0F6000252F8202010680006FCD5C8B29E
:10075000506000BF10684006FCD5106820F04001D2
:10076000002011607047000070B581B1054608781F
:100770000C4650B1002600BFC1B22846FFF7DEFF8D
:100780000136F0B2205C0028F6D1002070BD0120B7
:1007900070BD0000002904BF0120704744F24022D0
:1007A000C0F20F02504344F6D352C1F26202A0FBE2
:1007B00002029009086000207047000080B500F038
:1007C00001F880BD82B041F204000021C4F20200B1
:1007D0000191009150F8041C41F4803140F8041C50
:1007E00050F8041C01F4003100910199013101918C
:1007F000009919B90199B1F5A06FF1D150F8041C15
:10080000890354BF0021012100910099012936D1AB
:1008100042F20001C4F202010A6842F010020A60CA
:100820000A6822F007020A600A6842F002020A60BF
:100830000168016001680160016841F48061016044
:10084000016821F47C110160016841F4E811016044
:1008500050F8041C41F0807140F8041C50F8041C4E
:100860008901FBD5016821F003010160016841F0B5
:1008700002010160016801F00C010829FAD102B0FF
:100880007047000080B540F26C00C2F200000068C2
:10089000002808BF80BD80474EF21000CEF2000055
:1008A000016821F48031016080BD000080B541F213
:1008B0000000C4F202000168002241F00101016061
:1008C0004168CFF6FF021140416001684FF6FF72A8
:1008D000CFF6F66211400160016821F480210160C9
:1008E000416821F4FE0141604FF41F018160FFF770
:1008F00065FF4EF60850CEF200004FF00061016037
:1009000080BD000080B540F26000C2F200000168C6
:1009100009B10068804743F60000C4F20100016895
:1009200021F040010160016821F02001016080BDDB
:1009300080B540F26000C2F20000416809B1406831
:10094000804744F20040C4F20000016821F04001F9
:100950000160016821F02001016080BD80B540F296
:100960006000C2F20000816809B18068804744F6E7
:100970000000C4F20000016821F04001016001683C
:1009800021F02001016080BDFFF7FCFD032009215B
:10099000FFF7CEFD03200221FFF7CAFD032003214C
:1009A000FFF7C6FD03200E21FFF7C2FD002009213D
:1009B0000A22FFF717FD00200A210822FFF712FD87
:1009C00000200A21FFF7DAFC0020FFF74BFE12207F
:1009D000FFF78EFD002002210022FFF703FD40F209
:1009E0006121C0F600010020FFF7A8FC0020FFF7FE
:1009F0005DFCFFF7F7FD40F6B830FFF715FE40F25B
:100A0000A120C0F60000FFF703FEFFF721FE00BFA4
:100A1000FEE700000038014000440040004800406C
:100A20000024014000280140380A0008000000208E
:080A3000700600002801000817
:040000050800016D81
:00000001FF
