:020000040800F2
:10000000600600206D0100087501000877010008F6
:10001000790100087B0100087D0100080000000054
:100020000000000000000000000000007F01000848
:10003000810100080000000083010008850100081C
:100040008701000887010008870100088701000870
:100050008701000887010008870100088701000860
:100060008701000887010008870100088701000850
:100070008701000887010008870100088701000840
:100080008701000887010008870100088701000830
:100090008701000887010008870100088701000820
:1000A0008701000887010008870100088701000810
:1000B0008701000887010008870100088701000800
:1000C00087010008870100088701000887010008F0
:1000D00087010008870100088701000887010008E0
:1000E00087010008870100088701000800F002F876
:1000F00000F02CF80AA090E8000C82448344AAF196
:100100000107DA4501D100F021F8AFF2090EBAE893
:100110000F0013F0010F18BFFB1A43F0010318473B
:10012000840500009405000000230024002500261B
:10013000103A28BF78C1FBD8520728BF30C148BF4A
:100140000B6070471FB51FBD10B510BD00F031F832
:100150001146FFF7F7FF00F06FFA00F04FF803B415
:10016000FFF7F2FF03BC00F057F800000948804792
:1001700009480047FEE7FEE7FEE7FEE7FEE7FEE789
:10018000FEE7FEE7FEE7FEE704480549054A064BA1
:1001900070470000E1050008ED0000086000002045
:1001A0006006002060020020600200207047704757
:1001B0007047754600F02CF8AE4605006946534678
:1001C00020F00700854618B020B5FFF7DDFFBDE839
:1001D00020404FF000064FF000074FF000084FF0AE
:1001E000000BAC46ACE8C009ACE8C009ACE8C009FB
:1001F000ACE8C00921F007018D46704710B50446F0
:10020000AFF300802046BDE81040FFF7A8BF000014
:10021000004870470000002001491820ABBEFEE7EF
:100220002600020070470000022898BF0F2901D95C
:1002300001207047024602284FF001000FD0012A2A
:1002400019D0002A18BF704740F60C02C4F2010210
:10025000012013688840184310600020704740F662
:100260000C02C4F20102D2F8003888401843C2F8E8
:1002700000080020704740F60C02C4F20102012081
:10028000D2F8003488401843C2F8000400207047B8
:10029000034602284FF001001CD8002A08BF70470F
:1002A0000F290AD8022B0AD0012B14D02BB940F603
:1002B0000800C4F20100006813E00120704740F616
:1002C0000800C4F20100D0F80008C84000F00100A6
:1002D00010700020704740F60800C4F20100D0F80A
:1002E0000004C84000F001001070002070470000BA
:1002F00080B502280BD0012823D000287CD1072903
:1003000027D888004FF00F0C40F6000364E007295F
:1003100039D840F60443C4F2010388004FF00F0CB3
:10032000D3F8FCE30CFA00F12EEA0101C3F8FC1348
:10033000D3F8FC1302FA00F00843C3F8FC030020D2
:1003400080BD07293ED888004FF00F0C40F600030F
:1003500025E00F2950D840F600036FF01F00C4F2CB
:10036000010300EB81004FF00F0CD3F804E00CFA0E
:1003700000F12EEA01015960596802FA00F00843C1
:100380005860002080BD0F2984BF012080BD6FF020
:100390001F0000EB81004FF00F0C40F60443C4F245
:1003A0000103D3F800E40CFA00F12EEA0101C3F8CE
:1003B0000014D3F8001402FA00F00843C3F8000454
:1003C000002080BD0F2917D86FF01F0000EB8100BF
:1003D0004FF00F0C40F60443C4F20103D3F800E0E1
:1003E0000CFA00F12EEA01011960196802FA00F016
:1003F00008431860002080BD012080BD022898BFFE
:100400000F2901D901207047024602284FF0010050
:100410000FD0012A19D0002A18BF704740F60C02ED
:10042000C4F2010201201368884058401060002087
:10043000704740F60C02C4F20102D2F8003888403E
:100440005840C2F800080020704740F60C02C4F281
:1004500001020120D2F8003488405840C2F800045C
:1004600000207047024603284FF001000FD0022AF7
:1004700017D0012A18BF704741F21402C4F20202D9
:10048000012013688840184310600020704741F233
:100490001402C4F2020253688840184350600020DE
:1004A000704741F21402C4F20202012093688840AE
:1004B000184390600020704741F20401C4F2020129
:1004C00051F8040C20F4802041F8040C51F8040C7D
:1004D00040F4803041F8040C51F8040C8003FBD543
:1004E000086840F001000860086820F00200086019
:1004F000086820F0F000086008680860086820F4C8
:10050000E060086008680860086820F460500860CF
:100510000A6800200A60704780B500F001F880BDCD
:1005200082B041F204000021C4F202000191009166
:1005300050F8041C41F4803140F8041C50F8041CAD
:1005400001F400310091019901310191009919B92B
:100550000199B1F5A06FF1D150F8041C890354BF83
:100560000021012100910099012936D142F20001B8
:10057000C4F202010A6842F010020A600A6822F01E
:1005800007020A600A6842F002020A60016801601C
:1005900001680160016841F480610160016821F433
:1005A0007C110160016841F4E811016050F8041CFD
:1005B00041F0807140F8041C50F8041C8901FBD5FF
:1005C000016821F003010160016841F0020101604E
:1005D000016801F00C010829FAD102B0704700004F
:1005E00080B541F20000C4F202000168002241F02F
:1005F000010101604168CFF6FF02114041600168CE
:100600004FF6FF72CFF6F66211400160016821F4E7
:1006100080210160416821F4FE0141604FF41F0117
:100620008160FFF779FF4EF60850CEF200004FF0E0
:100630000061016080BD000082B0FFF73DFF032034
:100640000221FFF70FFF03200321FFF70BFF00201C
:10065000022102220024FFF74BFE01200B21082279
:10066000FFF746FE01200B21FFF7DEFD8DF8074066
:100670000DF1070401200B212246FFF709FE9DF82A
:1006800007000028F6D100200221FFF7B7FE00BFC7
:100690009DF807000028EDD101200B212246FFF72D
:1006A000F7FDF5E7B4060008000000206006000032
:0406B0002801000815
:040000050800016D81
:00000001FF
