:020000040800F2
:10000000600600206D0100087501000877010008F6
:10001000790100087B0100087D0100080000000054
:100020000000000000000000000000007F01000848
:10003000810100080000000083010008850100081C
:100040008701000887010008870100088701000870
:100050008701000887010008870100088701000860
:100060008701000887010008870100088701000850
:100070008701000887010008870100088701000840
:100080008701000887010008870100088701000830
:100090008701000887010008870100088701000820
:1000A0008701000887010008870100088701000810
:1000B0008701000887010008870100088701000800
:1000C00087010008870100088701000887010008F0
:1000D00087010008870100088701000887010008E0
:1000E00087010008870100088701000800F002F876
:1000F00000F02CF80AA090E8000C82448344AAF196
:100100000107DA4501D100F021F8AFF2090EBAE893
:100110000F0013F0010F18BFFB1A43F0010318473B
:1001200014050000240500000023002400250026FB
:10013000103A28BF78C1FBD8520728BF30C148BF4A
:100140000B6070471FB51FBD10B510BD00F031F832
:100150001146FFF7F7FF00F057FA00F04FF803B42D
:10016000FFF7F2FF03BC00F057F800000948804792
:1001700009480047FEE7FEE7FEE7FEE7FEE7FEE789
:10018000FEE7FEE7FEE7FEE704480549054A064BA1
:1001900070470000B1050008ED0000086000002075
:1001A0006006002060020020600200207047704757
:1001B0007047754600F02CF8AE4605006946534678
:1001C00020F00700854618B020B5FFF7DDFFBDE839
:1001D00020404FF000064FF000074FF000084FF0AE
:1001E000000BAC46ACE8C009ACE8C009ACE8C009FB
:1001F000ACE8C00921F007018D46704710B50446F0
:10020000AFF300802046BDE81040FFF7A8BF000014
:10021000004870470000002001491820ABBEFEE7EF
:10022000260002007047000010B5022834D00128D3
:100230001AD000281CBF012010BD072944D840F661
:100240000003C4F2010388004FF00F0CD3F800E064
:100250000CFA00F12EEA01011960196802FA00F0A7
:1002600008431860002010BD072948D840F6000355
:10027000C4F2010388000F21D3F80044814024EA2E
:100280000101C3F80014D3F8001402FA00F0084387
:10029000C3F80004002010BD07294AD840F60443E3
:1002A000C4F2010388000F21D3F8FC43814024EA03
:1002B0000101C3F8FC13D3F8FC1302FA00F0084361
:1002C000C3F8FC03002010BD0F2984BF012010BD1E
:1002D00040F60003A1F10800C4F201034FEA800ECA
:1002E0004FF00F0C5C680CFA0EF124EA0101596022
:1002F000596802FA00F008435860002010BD0F2929
:1003000084BF012010BD40F60444A1F10800C4F2EE
:10031000010481004FF00F0C23680CFA01F123EA6D
:1003200001012160216802FA00F0084320600020EA
:1003300010BD0F2984BF012010BD40F60444A1F177
:100340000800C4F2010481004FF00F0CD4F800340F
:100350000CFA01F123EA0101C4F80014D4F80014E6
:1003600002FA00F00843C4F80004002010BD0000A9
:10037000022898BF0F2901D901207047022820D0F8
:1003800001280FD00028F7D14FF0010062B3012AF5
:100390004ED140F60C02C4F20102012013688840DD
:1003A000184329E04FF001004AB3012A40D140F63A
:1003B0000C02C4F201020120D2F800348840184334
:1003C00026E04FF001003AB3012A18BF704740F60B
:1003D0000C02C4F201020120D2F800388840184310
:1003E000C2F800080020704740F60C02C4F2010277
:1003F0001368884023EA000010600020704740F630
:100400000C02C4F20102D2F80034884023EA000052
:10041000C2F800040020704740F60C02C4F201024A
:10042000D2F80038884023EA0000C2F80008002013
:1004300070470000024603284FF001000FD0022A47
:1004400017D0012A18BF704741F21402C4F2020209
:10045000012013688840184310600020704741F263
:100460001402C4F20202536888401843506000200E
:10047000704741F21402C4F20202012093688840DE
:10048000184390600020704741F20401C4F2020159
:1004900051F8040C20F4802041F8040C51F8040CAD
:1004A00040F4803041F8040C51F8040C8003FBD573
:1004B000086840F001000860086820F00200086049
:1004C000086820F0F000086008680860086820F4F8
:1004D000E060086008680860086820F46050086000
:1004E0000A6800200A60704780B500F001F880BDFE
:1004F00082B041F204000021C4F202000191009197
:1005000050F8041C41F4803140F8041C50F8041CDD
:1005100001F400310091019901310191009919B95B
:100520000199B1F5A06FF1D150F8041C890354BFB3
:100530000021012100910099012936D142F20001E8
:10054000C4F202010A6842F010020A600A6822F04E
:1005500007020A600A6842F002020A60016801604C
:1005600001680160016841F480610160016821F463
:100570007C110160016841F4E811016050F8041C2D
:1005800041F0807140F8041C50F8041C8901FBD52F
:10059000016821F003010160016841F0020101607E
:1005A000016801F00C010829FAD102B0704700007F
:1005B00080B541F20000C4F202000168002241F05F
:1005C000010101604168CFF6FF02114041600168FE
:1005D0004FF6FF72CFF6F66211400160016821F418
:1005E00080210160416821F4FE0141604FF41F0148
:1005F0008160FFF779FF4EF60850CEF200004FF011
:100600000061016080BD0000FFF73EFF80B903205C
:100610000221FFF70FFF58B9002002210222FFF745
:1006200003FE28B9002002210122FFF7A1FE00BF2E
:10063000FEE70000440600080000002060060000FD
:040640002801000885
:040000050800016D81
:00000001FF
