:020000040800F2
:10000000680600206D0100087501000877010008EE
:10001000790100087B0100087D0100080000000054
:100020000000000000000000000000007F01000848
:10003000810100080000000083010008810600081B
:100040008701000887010008870100088701000870
:100050008701000887010008870100088701000860
:100060008701000887010008870100088701000850
:100070008701000887010008870100088701000840
:100080008701000887010008870100088701000830
:100090008701000887010008870100088701000820
:1000A0008701000887010008870100088701000810
:1000B0008701000887010008870100088701000800
:1000C00087010008870100088701000887010008F0
:1000D00087010008870100088701000887010008E0
:1000E00087010008870100088701000800F002F876
:1000F00000F02CF80AA090E8000C82448344AAF196
:100100000107DA4501D100F021F8AFF2090EBAE893
:100110000F0013F0010F18BFFB1A43F0010318473B
:10012000FC0500000C06000000230024002500262A
:10013000103A28BF78C1FBD8520728BF30C148BF4A
:100140000B6070471FB51FBD10B510BD00F031F832
:100150001146FFF7F7FF00F0C9FA00F04FF803B4BB
:10016000FFF7F2FF03BC00F057F800000948804792
:1001700009480047FEE7FEE7FEE7FEE7FEE7FEE789
:10018000FEE7FEE7FEE7FEE704480549054A064BA1
:100190007047000095060008ED0000086800002088
:1001A000680600206802002068020020704770473F
:1001B0007047754600F02CF8AE4605006946534678
:1001C00020F00700854618B020B5FFF7DDFFBDE839
:1001D00020404FF000064FF000074FF000084FF0AE
:1001E000000BAC46ACE8C009ACE8C009ACE8C009FB
:1001F000ACE8C00921F007018D46704710B50446F0
:10020000AFF300802046BDE81040FFF7A8BF000014
:10021000004870470000002001491820ABBEFEE7EF
:10022000260002007047000080B50320032100F083
:100230001DF90320032100F019F901200A210222EF
:1002400000F02CF801200B21022200F027F880BDDD
:10025000B0B50A460129044602D0022A04D1002280
:1002600001200B2100F0A0F8002C08BFB0BD002534
:1002700001200A21012200F097F8032000F050F934
:1002800001200A21002200F08FF8032000F048F935
:100290000135E8B2A042EBD3B0BD000080B5022822
:1002A0000BD0012823D000287CD1072927D888002B
:1002B0004FF00F0C40F6000364E0072939D840F6F0
:1002C0000443C4F2010388004FF00F0CD3F8FCE3A1
:1002D0000CFA00F12EEA0101C3F8FC13D3F8FC1369
:1002E00002FA00F00843C3F8FC03002080BD072990
:1002F0003ED888004FF00F0C40F6000325E00F2990
:1003000050D840F600036FF01F00C4F2010300EB69
:1003100081004FF00F0CD3F804E00CFA00F12EEA44
:1003200001015960596802FA00F008435860002042
:1003300080BD0F2984BF012080BD6FF01F0000EB3E
:1003400081004FF00F0C40F60443C4F20103D3F8D0
:1003500000E40CFA00F12EEA0101C3F80014D3F80E
:10036000001402FA00F00843C3F80004002080BD26
:100370000F2917D86FF01F0000EB81004FF00F0C12
:1003800040F60443C4F20103D3F800E00CFA00F194
:100390002EEA01011960196802FA00F0084318609A
:1003A000002080BD012080BD022898BF0F2901D9FF
:1003B00001207047022820D001280FD00028F7D153
:1003C0004FF0010062B3012A4ED140F60C02C4F294
:1003D0000102012013688840184329E04FF0010012
:1003E0004AB3012A40D140F60C02C4F201020120B6
:1003F000D2F800348840184326E04FF001003AB3A9
:10040000012A18BF704740F60C02C4F20102012015
:10041000D2F8003888401843C2F80008002070471E
:1004200040F60C02C4F201021368884023EA00007F
:1004300010600020704740F60C02C4F20102D2F8AE
:100440000034884023EA0000C2F80004002070470E
:1004500040F60C02C4F20102D2F80038884023EAC8
:100460000000C2F800080020704700000246032880
:100470004FF001000FD0022A17D0012A18BF704791
:1004800041F21402C4F202020120136888401843AA
:1004900010600020704741F21402C4F20202536857
:1004A0008840184350600020704741F21402C4F2A3
:1004B0000202012093688840184390600020704732
:1004C00041F20401C4F2020151F8040C20F480202E
:1004D00041F8040C51F8040C40F4803041F8040C4D
:1004E00051F8040C8003FBD5086840F00100086057
:1004F000086820F002000860086820F0F00008603A
:1005000008680860086820F4E0600860086808600F
:10051000086820F4605008600A6800200A6070478C
:1005200010B582B0002401A9019400F031F810B197
:10053000012002B010BD4EF21001CEF20001086899
:1005400020F0010008608C6001984860086840F065
:10055000010008600868C003FCD5086820F00100AD
:10056000086000208860486002B010BD4EF21001A3
:10057000CEF20001002048608860086840F0040066
:100580000860086820F0020200200A60704700003E
:10059000002904BF0120704741F20022C0F27A0214
:1005A000504344F6D352C1F26202A0FB020290090A
:1005B000086000207047000080B500F001F880BDA1
:1005C00082B041F204000021C4F2020001910091C6
:1005D00050F8041C41F4803140F8041C50F8041C0D
:1005E00001F400310091019901310191009919B98B
:1005F0000199B1F5A06FF1D150F8041C890354BFE3
:100600000021012100910099012936D142F2000117
:10061000C4F202010A6842F010020A600A6822F07D
:1006200007020A600A6842F002020A60016801607B
:1006300001680160016841F480610160016821F492
:100640007C110160016841F4E811016050F8041C5C
:1006500041F0807140F8041C50F8041C8901FBD55E
:10066000016821F003010160016841F002010160AD
:10067000016801F00C010829FAD102B070470000AE
:1006800080B540F26000C2F200000068002818BF88
:10069000804780BD80B541F20000C4F202000168CD
:1006A000002241F0010101604168CFF6FF021140D4
:1006B000416001684FF6FF72CFF6F66211400160AB
:1006C000016821F480210160416821F4FE0141604C
:1006D0004FF41F018160FFF76FFF4EF60850CEF216
:1006E00000004FF00061016080BD0000FFF7E8FEF0
:1006F000FFF73CFFFFF798FD48200121FFF7A8FD19
:100700004FF47A70FFF70CFF48200221FFF7A0FD9D
:100710004FF47A70FFF704FFEEE700002C070008A3
:0C0720000000002068060000280100080E
:040000050800016D81
:00000001FF
