:020000040800F2
:10000000A8070020A5010008AD010008AF01000805
:10001000B1010008B3010008B501000800000000AC
:10002000000000000000000000000000B701000810
:10003000B901000800000000BB01000871170008AA
:10004000BF010008BF010008BF010008BF01000890
:10005000BF010008BF010008BF010008BF01000880
:10006000BF010008BF010008BF010008BF01000870
:10007000BF010008BF010008BF010008BF01000860
:10008000BF010008BF010008BF010008BF01000850
:10009000BF010008BF010008BF010008BF01000840
:1000A000BF010008BF010008BF010008BF01000830
:1000B000BF010008BF010008BF010008BF01000820
:1000C000BF010008BF010008BF010008BF01000810
:1000D000BF010008DD1700080918000835180008DE
:1000E000BF010008BF010008BF01000800F002F8CE
:1000F00000F048F80AA090E8000C82448344AAF17A
:100100000107DA4501D100F03DF8AFF2090EBAE877
:100110000F0013F0010F18BFFB1A43F0010318473B
:100120002427000044270000103A24BF78C878C173
:10013000FAD8520724BF30C830C144BF04680C60ED
:10014000704700000023002400250026103A28BF35
:1001500078C1FBD8520728BF30C148BF0B60704739
:100160001FB500F029FC04000020002102F038F93E
:10017000401C60600020002102F01CF9E0601FBDFF
:1001800010B510BD00F0F8F81146FFF7E9FF01F0D7
:1001900067FB00F03FF903B4FFF7F2FF03BC00F088
:1001A00099FC00000948804709480047FEE7FEE740
:1001B000FEE7FEE7FEE7FEE7FEE7FEE7FEE7FEE717
:1001C00004480549054A064B70470000851700089A
:1001D000ED000008A8010020A8070020A8030020C7
:1001E000A803002010B5431C02E010F8011B71B1F8
:1001F0008107FAD14FF0013202C88C1A8C4314EAFD
:10020000C211F9D0C01A0A0603D0C01E10BDC01A10
:1002100010BD0A0401D0801E10BD0902FCD0401E92
:1002200010BD40EA010370B59B072ED14FF0013697
:10023000042A2AD308C810C99D1B9D43121F15EA22
:10024000C61517D0D8B2E1B2401A50EA056110D1F4
:1002500098B2A1B2401A50EA05410AD123F07F407A
:1002600024F07F41401A50EA052102D1180EA0EB7C
:10027000146070BDA342DBD018BA21BA884201D9FC
:10028000012070BD4FF0FF3070BD0AB9002070BD75
:1002900010F8013B11F8014B63B1A3420AD1521E81
:1002A00008D010F8013B11F8014B1BB1A34201D15A
:1002B000521EEDD1181B70BD704770477047002368
:1002C000036000F023B800000FB40B0010B54FF02E
:1002D00000048AB00FA900910E99CC60234C7C4495
:1002E000234A7A44CDE9064200D004236FF000424D
:1002F000CDE901321F4A7A446B460892024600203B
:1003000002F02EFA0AB010BC5DF814FBF0B50746F7
:100310004FF0FF301E4615460C463B4685B06A46F8
:100320000091CDE9010131460020049004A8FFF7B7
:10033000CBFF04990346601825B109B1024600E0DD
:1003400022462A6000290ED0002B02DD009981424E
:1003500009D03B466A463146001B0094CDE90104B2
:1003600004A8FFF7B1FF05B0F0BD0000F3000000E6
:100370000D010000C9000000754600F055F8AE46BA
:1003800005006946534620F00700854618B020B5A1
:10039000FFF716FFBDE820404FF000064FF00007C2
:1003A0004FF000084FF0000BAC46ACE8C009ACE8D9
:1003B000C009ACE8C009ACE8C00921F007018D46CE
:1003C000704710B5044600F033F80068005D00F097
:1003D000010010BD426842B1016811F8013B23B130
:1003E000521EC0E90012184670470121C160881EE4
:1003F000704742685AB1C368016843B983688B4249
:1004000005D0491E521CC0E90012002070474FF071
:10041000FF30704710B50446AFF300802046BDE8BA
:100420001040FFF7B8BE000000487047F000002001
:1004300010B500F0C1FA001D10BD00BFA51F0000DF
:100440002DE9FF4F06468BB00878FF2806D0491CDF
:100450002D2805D000244FF0000908E000200CE012
:100460000124F8E709EB8903491C00EB43090878EC
:10047000FF28F7D114B1C9F100008146107800259A
:100480002C46AA4629462D2801D02B2804D1521CDF
:100490002D2813D0002082468B461078FF280FD0DD
:1004A0004FF0000C0A21521CA5FB017804FB0181CE
:1004B00005FB0C11C5194BEB0104EEE70120EAE73F
:1004C000002108464FF00000BAF1000F02D000EB07
:1004D00080004008C0F38157012F01DD4FF0FF3746
:1004E0000E9955EA040009EB01080BD04FF0020900
:1004F00018F5FA7F16DA4FEACA70002F706008DD2F
:10050000012007E04FEACA70C6E900B00FB0BDE8AD
:10051000F08F0020306000F053FAC0F800901821EE
:10052000084616E0B8F5FA7F18DD002F02DAF74822
:10053000784401E0F6487844D0E90010C6E900109C
:1005400040EACA70706000F03BFAC0F800901421D5
:1005500008460FB0BDE8F04F02F09FB800210846F2
:100560004FF00000B8F10001099002DAC7F1000273
:1005700000E03A4601DAC8F1000106A800F038FAB6
:1005800006AB93E8070003AB83E8070044F23E00A4
:100590005BEA04010090584604D144F21E012C4647
:1005A0005D460091210C0904014306D10099240401
:1005B00044EA15442D041039009104F07F410143B1
:1005C00006D10099240244EA15642D0208390091ED
:1005D00004F07041014306D10099240144EA1574E6
:1005E0002D01091F009104F04041014306D10099FB
:1005F000A40044EA9574AD00891E009104F0004106
:10060000084304D100986D196441401E00904FF0DA
:1006100001033A466846B8F1000FCDE9014503A948
:1006200002DD01F098FC01E001F06BFCBAF1000F73
:1006300004460D4601D084F00044002108464FF0E6
:100640000000099940F2FF77484010F00C0F07D1E5
:1006500024F00040284303D0C4F30A50B84212D11A
:1006600000F0AEF9C0F80090C4F30A50B8420AD1C5
:10067000A8487844D0E90010C6E9001004F0004111
:100680000843706042E7C6E900543FE72DE9FF4F99
:100690001F464FF0000A4FF0FF38454691B0D7E9AA
:1006A0000146CDF83CA000F087F9C0680168405CC5
:1006B0001090B96912986D1C8847396A814688473D
:1006C0000028F6D1B9F1FF3F0AD0002E24F4D064FF
:1006D00011DDB9F12B0F08D0B9F12D0F0BD102E0CC
:1006E000404615B013E744F48064B96912986D1C54
:1006F0008847761E8146600504A901D52D2000E0BB
:100700002B20002E01F1010B0DF130088DF81000A7
:100710003FDDB9F1690F08D0B9F1490F05D0B9F142
:100720006E0F02D0B9F14E0F1CD13B4601A80095C7
:1007300080E85002DDE912126FF0020002F014F8B6
:10074000C11CCED10EE0B96912986D1C8847814654
:100750001398761E44F4007405600F98401C002E18
:100760000F9016DDB9F1300FEDD0B9F1780F02D04E
:10077000B9F1580F0DD10F9801280AD13B46CDE9A8
:100780000054DDE91212001F029601F0EBFFC11CBC
:10079000A7D1109989453ED144F0800406E0139911
:1007A000681CAAF1010A44F400740860B9696D1C60
:1007B0001298761E884730288146F0D02BE0109999
:1007C000894505D1200603D4761E44F0800418E044
:1007D000484601F078FD08B3761E0DF123029345DB
:1007E000A9F1300044F4007406D20BF8010B200686
:1007F00007D5AAF1010003E0200602D40AF10100A6
:100800008246A00502D51399681C0860B969129840
:100810006D1C88478146002ED1DC53E0002E51DD4F
:10082000B9F1650F02D0B9F1450F4BD1A00549D5FB
:10083000B9696D1C1298761E24F440748847002E06
:1008400081460CDD2B2804D0B9F12D0F07D144F4DB
:100850008074B96912986D1C8847761E8146E00540
:1008600001D52D2100E02B2108F8011BCDF80080D7
:1008700021E0761E0DF13901884544F400740CD254
:10088000A9F1300010F0FF0088F8000002D10099B3
:10089000884509D908F1010806E0E00501D51E48A0
:1008A00001E042F20F708246B96912986D1C8847C8
:1008B000814613980560002E04DD484601F003FDD3
:1008C0000028D6D1F96912988847FF2053468BF843
:1008D000000088F8000000200A900B9004AA0CA9E0
:1008E0000AA8FFF7ADFDA00502D46FF00100F8E6FD
:1008F00014F0240F12D0E0071CD13868DDE90A1289
:10090000031D3B600068C0E9001213E038230000BB
:100910002A230000EE210000F1D8FFFF0AA9684653
:1009200001F060FCE00705D13868009A011D3960CC
:10093000006802602846D4E64FF0013C50F8042BD2
:1009400051F8043B9A4221D1A2EB0C03934313EAE2
:10095000CC1317D150F8042B51F8043B9A4215D10F
:10096000A2EB0C03934313EACC130BD150F8042BE6
:1009700051F8043B9A4209D1A2EB0C03934313EACA
:10098000CC13DBD04FF00000704700BFD01A01BA83
:10099000B1FA81F101F0180122FA01F0CB40DBB28B
:1009A000C0B2C01AC1F120012CFA01F3D11A91434F
:1009B00011EAC311E6D170470048704710010020CA
:1009C00000487047F0000020B2F120030AD5C2F1C0
:1009D000200301FA02F120FA03F341EA030100FACD
:1009E00002F0704700FA03F14FF00000704700007A
:1009F0002DE9F047814616468AB0354878440DC83F
:100A00008DE80D0032487844801C03AC0DC884E8A2
:100A10000D0041F69B300844372190FBF1F290FB2A
:100A2000F1F5A5F1800501FB12041B3C02D56442DF
:100A3000012000E00020DFF898A080460027FA445B
:100A4000AAF1BE0A0EE0E0070AD03246684607EB7C
:100A5000470101230AEB810101F068FA8DE80700E4
:100A600064107F1C002CEED1194F7F44AE3F19E07B
:100A7000E80715D007EB04100DF1180A90E80E00F6
:100A80008AE80E00C068F04201D1981908903246F9
:100A9000012306A903A801F049FA03AB83E8070084
:100AA0006D10641C002DE3D14FF0010332466946FE
:100AB000B8F1000F03A802D001F00EFA01E001F036
:100AC00035FAC9E90001C9F808200AB0BDE8F08785
:100AD000181E000001491820ABBEFEE726000200E8
:100AE00010B5FFF76DFF006810BD10B50446FFF7A5
:100AF00067FF046010BD00002DE9FF4F1F464FF057
:100B00003C0987B04FF00042DDE9141001F1010803
:100B1000DDF858A002EA405003900020059083467B
:100B2000054604460490B969461E08988847AAF10C
:100B3000010A0290BAF1000F3BDD02982E2815D071
:100B4000102100F004FA00282EDB4FF0010B05996C
:100B5000014317D0B9F1000F0BDB4A46C117FFF76D
:100B600033FF05430C43A9F1040905E0012004907B
:100B70000BE008B145F0010501200590049820B96B
:100B8000361D02E0049800B1361FB969089808F1D3
:100B900001088847BBF1000FAAF1010A0290C9D0F1
:100BA0000999C1F80080C5E70298702808D050283C
:100BB00006D0F96908988847BBF1000F14D04FE0C0
:100BC000002002900120BBF1000F049009D0B96908
:100BD000089808F101088847AAF10109B9F1000F46
:100BE00007DCF969089888476FF001000BB0BDE891
:100BF000F08F2B2804D02D280CD14FF0FF3004901B
:100C0000B969089808F101088847A9F10109B9F103
:100C1000000FE6DD411CE4D00A2100F098F900281D
:100C2000DFDB029908F1010801EB810100EB4100D3
:100C30000290B969089888470A2100F088F9099A52
:100C4000A9F10109B9F1000FC2F8008001DD002807
:100C5000E7DAF969089888470499029800FB016669
:100C600055EA040004D004F04041090002D006E037
:100C7000039898E0A40044EA9574AD00B61E04F011
:100C80000041080002D16D196441761E159810F0DC
:100C9000240F03D04FF00B095C4803E04FF0280904
:100CA0006FF07D008246564507DAAAEB06018944BB
:100CB000B9F1410F01DD4FF0410901200021A9F1F7
:100CC0000102FFF781FE024628400B4621400843FF
:100CD00001D0012100E00021501E029143F1FF31BB
:100CE00028402140084301D0012000E00020029963
:100CF000834651EA0B014FD0002108464FF0000017
:100D0000039900F4400039B100EB80004FF440013A
:100D100000EBD07001EA60008015012802DD4FF081
:100D2000FF3000E013D0401C36D0029860B3BBF116
:100D3000000F0CD14A4601200021FFF745FE284054
:100D40002140084301D0012000E00020E0B1012053
:100D50004A460021FFF738FE034640190A46614122
:100D60002D1A8C4111D3B9F1400F09DD159810F0FF
:100D7000240F02D0AAF1340603E0AAF1170600E01E
:100D8000761C00254FF0004406E05B1E42F1FF3266
:100D900020EA030521EA0204CAF10100B04206DAA2
:100DA0001B49039808430190002000900EE0039A2D
:100DB000C4F3D321E80A0A43164940EA44500A43DF
:100DC0003146CDE90002684601F072FA159810F03C
:100DD000240F0BD01598C00715D13868DDE9001233
:100DE000031D3B600068C0E900120CE002A86946E0
:100DF00001F0F8F91598C00705D13868029A011D6D
:100E00003960006802604046F0E6000002FCFFFF27
:100E10000000F07F0000F03F2DE9FF4F92461D4695
:100E200085B04FF00041DDE9124BDDE914727F1E01
:100E300001EA4B50414940F0FF4940EA01080021D6
:100E400022F020004928049102D04E2828D04CE0FE
:100E50003BA0012607C88DE80700A9690698641C15
:100E600088477F1E014606D41DF8060018B121F000
:100E7000200181420BD0E96906988847032E34D0BF
:100E8000082E32D06FF0010009B0BDE8F08F761C5B
:100E9000032E01D0082EE0D1601CCAF80000DCE768
:100EA000A9690698641C88477F1E2AD420F0200078
:100EB000412826D1A9690698641C88477F1E20D442
:100EC00020F020004E281CD1A9690698641C884790
:100ED0007F1E48F4002849F48009CAF8004001D474
:100EE000282806D0E969069888475FEACB7012D0B7
:100EF00022E0A9690698641C88477F1E01D4002857
:100F000003DAE96906988847BCE72928F1D1641C0F
:100F1000CAF80040E9E71BF0240F07D028680499BD
:100F2000031D2B600068C0E9001805E02868021D59
:100F30002A600068C0F800902046A5E70000F07F16
:100F4000494E46494E4954590000000070473A281E
:100F500000D2303820F02002412A01D3A2F137001C
:100F6000884201D34FF0FF3070470000002808BFCF
:100F7000704780B502A000F021F9BDE880407047BD
:100F800031372E3233000000002808BF704780B58B
:100F900002A000F013F9BDE88040704733302E39CD
:100FA0003400000080B503200E2100F0A3FA0320D6
:100FB000022100F09FFA002009210A2200F092F994
:100FC00000200A21082200F08DF900200A2100F0FB
:100FD00025F9252000F06EFA40F6F171C0F6000107
:100FE000002000F029FB002000F0DEFA002080BD88
:100FF0002DE9F04F81B000240DF102010020ADF881
:10100000024000F005FBBDF80200C1B20D294AD133
:1010100040F29218C2F2000898F8000040F29311D2
:10102000C2F2000140F291190C54C2F2000999F881
:101030000000002856D040F2901BC2F2000B9BF833
:101040000000002874D040F2000440F2931540F2F2
:10105000601740F28C1A0026C2F20004C2F20005AA
:10106000C2F20007C2F2000A05E000BF0136022EFC
:1010700004F1140427D02046FFF7B4F802462846AE
:101080002146FFF7CEF80006F0D157F826000028D9
:10109000ECD057F82610504688479BF800000130E6
:1010A0008BF80000E2E740F29211C2F200010A78E8
:1010B00040F29313C2F2000398540878013008708C
:1010C00001B0BDE8F08F9BF80000032802BF0020AC
:1010D0008BF8000089F80000002088F8000001B0BB
:1010E000BDE8F08F40F2280440F293150026C2F2CA
:1010F0000004C2F2000500BF2046FFF773F8024665
:1011000020462946FFF78DF8000628D001360A2E22
:1011100004F11404F0D1002088F800001FA000F0B2
:101120004DF800200D2100F093FA01B0BDE8F08FDA
:1011300040F29310C2F200000021002401F030F9C7
:1011400040F28C11C2F2000108609BF800000130EF
:101150008BF8000088F8004001B0BDE8F08FF0B2D5
:10116000092803D1012089F80000B5E740F268148E
:10117000C2F2000454F826000028ADD00BA000F005
:101180001DF800200D21002500F062FA54F8260019
:10119000804788F8005001B0BDE8F08F696E766135
:1011A0006C696420636F6D6D616E640061636B6E6A
:1011B0006F776C65646765640000000010B550B11E
:1011C00001460020002400F059FA00200A2100F016
:1011D0003FFA204610BD0124204610BD02460128DA
:1011E0004FF0010009D8002908BF704740F2601095
:1011F000C2F2000040F82210002070470246092881
:101200004FF0010009D8002908BF704740F268106C
:10121000C2F2000040F8221000207047022898BF58
:101220000F2901D901207047024602284FF0010022
:101230000FD0012A19D0002A18BF704740F60C02BF
:10124000C4F2010201201368884018431060002096
:10125000704740F60C02C4F20102D2F80038884010
:101260001843C2F800080020704740F60C02C4F290
:1012700001020120D2F8003488401843C2F800046B
:1012800000207047034602284FF001001CD8002AB6
:1012900008BF70470F290AD8022B0AD0012B14D09F
:1012A0002BB940F60800C4F20100006813E00120E9
:1012B000704740F60800C4F20100D0F80008C840AA
:1012C00000F0010010700020704740F60800C4F2E2
:1012D0000100D0F80004C84000F0010010700020A8
:1012E0007047000080B502280BD0012823D00028C9
:1012F0007CD1072927D888004FF00F0C40F6000357
:1013000064E0072939D840F60443C4F20103880099
:101310004FF00F0CD3F8FCE30CFA00F12EEA0101B8
:10132000C3F8FC13D3F8FC1302FA00F00843C3F827
:10133000FC03002080BD07293ED888004FF00F0C29
:1013400040F6000325E00F2950D840F600036FF067
:101350001F00C4F2010300EB81004FF00F0CD3F823
:1013600004E00CFA00F12EEA01015960596802FA12
:1013700000F008435860002080BD0F2984BF012081
:1013800080BD6FF01F0000EB81004FF00F0C40F6A6
:101390000443C4F20103D3F800E40CFA00F12EEA8E
:1013A0000101C3F80014D3F8001402FA00F0084356
:1013B000C3F80004002080BD0F2917D86FF01F006C
:1013C00000EB81004FF00F0C40F60443C4F2010320
:1013D000D3F800E00CFA00F12EEA01011960196857
:1013E00002FA00F008431860002080BD012080BD93
:1013F000022898BF0F2901D901207047022820D068
:1014000001280FD00028F7D14FF0010062B3012A64
:101410004ED140F60C02C4F201020120136888404C
:10142000184329E04FF001004AB3012A40D140F6A9
:101430000C02C4F201020120D2F8003488401843A3
:1014400026E04FF001003AB3012A18BF704740F67A
:101450000C02C4F201020120D2F80038884018437F
:10146000C2F800080020704740F60C02C4F20102E6
:101470001368884023EA000010600020704740F69F
:101480000C02C4F20102D2F80034884023EA0000C2
:10149000C2F800040020704740F60C02C4F20102BA
:1014A000D2F80038884023EA0000C2F80008002083
:1014B0007047000001461F280AD84EF20012CEF2F3
:1014C0000002012013688840184310600020704714
:1014D0003B294FF0010088BF70474EF200122039BF
:1014E000CEF20002C9B25368884018435060002011
:1014F00070470000024603284FF001000FD0022A77
:1015000017D0012A18BF704741F21402C4F2020238
:10151000012013688840184310600020704741F292
:101520001402C4F20202536888401843506000203D
:10153000704741F21402C4F202020120936888400D
:10154000184390600020704741F20401C4F2020188
:1015500051F8040C20F4802041F8040C51F8040CDC
:1015600040F4803041F8040C51F8040C8003FBD5A2
:10157000086840F001000860086820F00200086078
:10158000086820F0F000086008680860086820F427
:10159000E060086008680860086820F4605008602F
:1015A0000A6800200A60704742F63001C0F6000168
:1015B00051F82010C86820F48050C860C86820F432
:1015C0008060C860086920F44050086108690861BB
:1015D000C86820F04000C860C86840F02000C860BB
:1015E00045208860C86840F00800C860C86840F0BE
:1015F0000400C860C86840F40050C860086820F063
:1016000040000860086820F0200200200A6070474F
:10161000002904BF0120704742F63002C0F60002E4
:1016200052F820004268D2B20A80016821F02001FD
:10163000016000207047000000290FBF012040F228
:101640005012C2F2000242F8201018BF002070476A
:1016500042F63002C0F6000252F820201068000660
:10166000FCD5C8B2506000BF10684006FCD51068B9
:1016700020F04001002011607047000070B581B17A
:10168000054608780C4650B1002600BFC1B2284676
:10169000FFF7DEFF0136F0B2205C0028F6D1002013
:1016A00070BD012070BD000080B500F001F880BD64
:1016B00082B041F204000021C4F2020001910091C5
:1016C00050F8041C41F4803140F8041C50F8041C0C
:1016D00001F400310091019901310191009919B98A
:1016E0000199B1F5A06FF1D150F8041C890354BFE2
:1016F0000021012100910099012936D142F2000117
:10170000C4F202010A6842F010020A600A6822F07C
:1017100007020A600A6842F002020A60016801607A
:1017200001680160016841F480610160016821F491
:101730007C110160016841F4E811016050F8041C5B
:1017400041F0807140F8041C50F8041C8901FBD55D
:10175000016821F003010160016841F002010160AC
:10176000016801F00C010829FAD102B070470000AD
:1017700080B540F25C10C2F200000068002818BF7B
:10178000804780BD80B541F20000C4F202000168CC
:10179000002241F0010101604168CFF6FF021140D3
:1017A000416001684FF6FF72CFF6F66211400160AA
:1017B000016821F480210160416821F4FE0141604B
:1017C0004FF41F018160FFF76FFF4EF60850CEF215
:1017D00000004FF00061016080BD000080B540F264
:1017E0005010C2F20000016809B10068804743F65A
:1017F0000000C4F20100016821F0400101600168AD
:1018000021F02001016080BD80B540F25010C2F28D
:101810000000416809B14068804744F20040C4F2CA
:101820000000016821F040010160016821F0200101
:10183000016080BD80B540F25010C2F200008168A6
:1018400009B18068804744F60000C4F200000168D6
:1018500021F040010160016821F02001016080BD9C
:10186000FFF772FE03200221FFF744FE002005214E
:101870000222FFF737FD002004210222FFF732FD8C
:1018800041F63511C0F600010620FFF7B7FC41F61E
:10189000ED11C0F600010720FFF7B0FC41F62D2145
:1018A000C0F600010820FFF7A9FC41F6F901C0F6D7
:1018B00000010120FFF7A2FC41F6AD11C0F60001C6
:1018C0000220FFF79BFC41F67111C0F600010020D9
:1018D000FFF794FC40F66D71C0F600010020FFF7A1
:1018E0007DFC40F68971C0F600010120FFF776FC0F
:1018F000FFF758FBFEE7000080B50020052100221D
:10190000FFF776FD03A0FFF759FC00200D21FFF73C
:101910009FFE80BD5556204C6564205375636365FA
:10192000737366756C6C79207475726E6564206F64
:101930006666000080B5002005210122FFF758FDF2
:1019400003A0FFF73BFC00200D21FFF781FE80BDC7
:101950005556204C656420537563636573736675D3
:101960006C6C79207475726E6564206F6E00000077
:1019700080B582B000208DF807000DF1070200202D
:101980000521FFF77FFC9DF80700012805D050B91D
:1019900042F63C00C0F6000003E042F64000C0F60C
:1019A0000000FFF70BFC02B080BD000080B50020F6
:1019B00004210022FFF71CFD03A0FFF7FFFB00201E
:1019C0000D21FFF745FE80BD56697369626C652085
:1019D0004C6564205375636365737366756C6C79CD
:1019E000207475726E6564206F66660080B5002095
:1019F00004210122FFF7FCFC03A0FFF7DFFB00201E
:101A00000D21FFF725FE80BD56697369626C652064
:101A10004C6564205375636365737366756C6C798C
:101A2000207475726E6564206F6E000080B502A030
:101A3000FFF7C4FB80BD00BF313030300000000034
:101A400023F07F4720F07F4C80EA030000F0004045
:101A5000ACEB070303F57C5303F1FF032DE9804949
:101A600009B44FEA144324EA03484FEA154B25EA28
:101A70000B4E0FF2042606EB13273E7803FB066796
:101A8000C7F5000707FB06F64FEAD64606F1020641
:101A90004FEA543707FB066CCCF1005C4FEA1C4759
:101AA0002CEA074C0CFB06F507FB06F404EB154685
:101AB0004FEA961649085FEA320234BF00204FF021
:101AC00000404FEAD13706FB07FC4FEA1C4C0CFBE9
:101AD0000BF7D21B03FB0CF761EB07010CFB0EF7B6
:101AE000B0EB074072EB17420CFB08F734BFA2EBD8
:101AF0000742B2EB074261EB17414FEA0C444FEA51
:101B0000910706FB07FC4FEA1C4C0CFB0BF7B0EBF4
:101B1000C74072EB573203FB0CF734BFA2EBC7424E
:101B2000B2EBC74261EB57310CFB0EF7B0EBC700CD
:101B300072EB57720CFB08F734BFA2EBC702B2EB93
:101B4000C70261EB57714FEA816141EA92114FEA96
:101B5000826242EA90124FEA806004EBCC04039F59
:101B60004FEAD13706FB07FC4FEA1C4C0CFB0BF786
:101B7000D21B03FB0CF761EB07010CFB0EF7B0EB7C
:101B8000074072EB17420CFB08F734BFA2EB074289
:101B9000B2EB074261EB17414FEA8C5504EB9C24F2
:101BA0004FEA910706FB07FC4FEA1C4C0CFB0BF7B6
:101BB000B0EBC74072EB573203FB0CF734BFA2EB1C
:101BC000C742B2EBC74261EB57310CFB0EF7B0EBEB
:101BD000C70072EB57720CFB08F734BFA2EBC702C9
:101BE000B2EBC70261EB57714FEA816141EA921192
:101BF0004FEA826242EA90124FEA806015EB4C2570
:101C000044F100044FEAD13706FB07FC4FEA1C4CB5
:101C10000CFB0BF7D21B03FB0CF761EB07010CFB72
:101C20000EF7B0EB074072EB17420CFB08F734BF1E
:101C3000A2EB0742B2EB074261EB17414FEA813159
:101C400041EA92414FEA823242EA90424FEA8030C2
:101C50004FEA0C7615EB1C1544F1000448EA0343E7
:101C60004EEA0B484FF0000EB2EB080C71EB030785
:101C700024BF624639464EEB0E0E4FF0000B0018A3
:101C8000524149414BEB0B0BB2EB080C71EB0307D4
:101C90007BF1000B24BF624639464EEB0E0E4FF02F
:101CA000000B0018524149414BEB0B0BB2EB080CF7
:101CB00071EB03077BF1000B24BF624639464EEB04
:101CC0000E0E51EA020718BF46F0010616EB0E761B
:101CD00055F1000254F1000103D5BDE88901BDE8CA
:101CE0000088BDE88901BDE80048B619524141EBC2
:101CF0000101A3F10103704780807F7E7D7C7B7AA8
:101D00007978777676757473727171706F6E6E6DA7
:101D10006C6C6B6A6A69686867666665646463634D
:101D200062616160605F5F5E5E5D5D5C5C5B5B5AD3
:101D30005A59595858575756565555555454535340
:101D400052525251515050504F4F4F4E4E4D4D4D9B
:101D50004C4C4C4B4B4B4A4A4A49494948484847E6
:101D60004747474646464545454444444443434324
:101D7000434242424241414110B546EA06464FEADB
:101D8000164646EA42564FEAD22242EA41524FEA0A
:101D9000D121A3F57053A3F1010300F02FF820F037
:101DA000004000F0004700F1020CBCF5006F01EBB1
:101DB0000050114640EA070000D210BDBAF1000FF2
:101DC0000AD01CB503B44FF004004FF004014FF0EB
:101DD00000000FBCBDE810404FF00001BBF1010F47
:101DE000B9BF04484FF0FF310348002140EA070023
:101DF00010BD00BFFFFFEF7F0000F07F9C46002B6F
:101E000030D477002BD04FEA37071CB503B44FF01E
:101E100010004FF01001BAF1000F06D0BCF1000F16
:101E2000DCBF40F0080040F008014FF000000FBC9C
:101E3000BDE810400BF1010BBBF1010F08BF5FEAD9
:101E4000170722BF12F1010211F101014FF0004109
:101E500043F1000300F0004043EA00007047F9D36B
:101E60005708D0E746EA06464FEA164613F1400FF8
:101E70001FDD13F1200FDFBF16430A460021203378
:101E80005B42BED0C3F1200746EA06464FEA16463B
:101E900002FA07F746EA070622FA03F2C3F120071F
:101EA00001FA07F742EA070221FA03F14FF00003B3
:101EB000A7E746EA020646EA06464FEA164646EA1B
:101EC0000106BCBF46EA0646360C4FF000034FF051
:101ED00000024FF0000194E72DE9804C70B49A465F
:101EE000934691E8380007C831EA400C48BF34EA0D
:101EF000430C03D5FFF7A4FDFFF780FFF0BCBDE85E
:101F0000008C2DE9804C70B49A46934691E83800D5
:101F100007C831EA400C48BF34EA430C03D5FFF749
:101F20008FFDFFF729FFF0BCBDE8008C2DE9804C48
:101F300070B49A46934691E8380007C810F0804F75
:101F400008BF13F0804F03D100F01AF8FFF756FFD7
:101F5000F0BCBDE8008C2DE9804C70B49A469346E5
:101F600091E8380007C810F0804F08BF13F0804F89
:101F700003D100F005F8FFF7FFFEF0BCBDE8008CD0
:101F800020F07F4723F07F4C80EA030000F0004000
:101F900007EB0C03A3F57C53A3F1FE0392F0000FB3
:101FA00000F0B38095F0000F00F077802DE9014933
:101FB0004FEA114021EA00484FEA144624EA064756
:101FC00000FB06FC08FB06F607FB08F818EB0648C2
:101FD0004CEB164C00FB07F718EB07484CEB17408F
:101FE0004FEA124B22EA0B4E4FEA154625EA064706
:101FF0000BFB06FC0EFB06F607FB0EFE1EEB064E69
:102000004CEB164C0BFB07F71EEB074E4CEB174B3C
:1020100018EB0B0840F1000018EB0E0B58EB000812
:1020200040F100008F1A4FF000014FF000063CBF56
:10203000C943661B14BFB5EB040C00213CBFC94368
:10204000F61B4FEA174427EA04454FEA1C472CEADF
:10205000074C04FB076205FB07F70CFB05F616EBC4
:10206000074642EB174204FB0CFC16EB0C4642EB16
:102070001C421BEB060658EB020241414EEA8E0E53
:1020800046EA9E0601D5BDE80189B619524141EBE9
:102090000101A3F10103BDE801894FEA144524EAD7
:1020A00005464FEA114721EA074C05FB07F406FBFA
:1020B00007F70CFB06F111EB074144EB174405FB56
:1020C0000CFC11EB0C4144EB1C444FEA124722EA92
:1020D000074C05FB07F206FB07F70CFB06F616EBB1
:1020E000074642EB174205FB0CFC16EB0C4642EB95
:1020F0001C456A1854F1000148BF7047B619524197
:1021000041EB0101A3F10103704795F0000F37D0B7
:102110004FEA114221EA02464FEA144724EA074CEB
:1021200002FB07F106FB07F70CFB06F414EB074470
:1021300041EB174102FB0CFC14EB0C4441EB1C413E
:102140004FEA154725EA074C02FB07F506FB07F7A0
:102150000CFB06F616EB074645EB174502FB0CFC9D
:1021600016EB0C4645EB1C42121951F1000148BF19
:102170007047B619524141EB0101A3F101037047C9
:102180004FEA144524EA05464FEA114721EA074C75
:1021900005FB07F106FB07F70CFB06F212EB074203
:1021A00041EB174105FB0CFC12EB0C4251EB1C41BF
:1021B0004FF0000648BF7047921841EB0101A3F1B0
:1021C0000103704740F2013200204FF0E04100F07F
:1021D00099BA0000024A0020110700F093BA0000EB
:1021E00001FDFFFF10B50446D1E9000100F002F83F
:1021F000206010BDF8B504460D466A4600F06AF846
:1022000000987E30009000281EDC002213462046F5
:10221000294600F041F917D0002140F608004FF0A0
:10222000000006462046294600F0F0F8044640F635
:10223000080006EA00014FF0000034F0004004BF3F
:102240000220FEF752FC29E00098FF2828DB00213D
:1022500008464FF0000000F44006002213462046D6
:10226000294600F0DFF98CBF002501250220FEF78A
:102270003CFC4FF0FF4446B1002D0CBF4FF4000072
:102280004FF48000B04218BF084C042108464FF0BC
:102290000000002D04BF84F00040F8BD2046F8BDCA
:1022A00020462946BDE8F84000F0B0B8FFFF7F7F28
:1022B00010B504460A46D4E90003194600F036F882
:1022C000C4E9000110BD30380A2801D2012070474E
:1022D0000020704710B5144600222260114A21F0F8
:1022E00000439342A8BF10BD53EA000208BF10BDCF
:1022F000B3F5801FA8BF226807DA362200F002FA81
:102300006FF0350221F000432260DFF81CC06FF34C
:102310001E510CEB23531A4441F0FF5141F0005180
:10232000226010BD0000F07F02FCFFFF2DE9F041AC
:1023300006460C4640F2FF75174635EA14502BD07E
:1023400000221346304600F0A7F825D03A46304622
:10235000214600F0D7F906460C4635EA145010D055
:1023600000221346304600F097F815D10220FEF700
:10237000BCFBFFF72FFF0A46214662F31E01BDE8B2
:10238000F0810220FEF7B1FBFFF71CFF0A46214651
:1023900062F31E01BDE8F08130462146BDE8F081C0
:1023A00008B50A460021009101466846FDF787FFFF
:1023B000009808BD10B500290AD00878002807D079
:1023C00005487844FEF7B8FA002801D0002010BD77
:1023D0000248784410BD0000B2040000AA040000C6
:1023E00010B500290AD00878002807D0054878449D
:1023F000FEF7A2FA002801D0002010BD0248784460
:1024000010BD0000A20400009A04000021F0004268
:1024100001F00043A2F16052B2F5801F28BFD2F153
:102420007F6C0BD95FEA001C43EAC20242EB50709A
:1024300018BF704728BF20F001007047B2F5801F19
:10244000BCBF184670474FEA410C1CF5001F02D272
:10245000084600F01DB970B500F096F8000000893C
:10246000FFF7F6BF4FF00040A0F580007047000076
:1024700002494FF0000000F013B900BF0000F87FE0
:10248000491058BFC1F140415B1058BFC3F14043F0
:102490008B42EFF30080704751EA030C17D41CF510
:1024A000801F58BFBCF5801F00F10680994218BFFD
:1024B000704708BF9042704707D711F5801F58BF7B
:1024C00013F5801F19D499427047894270471CF553
:1024D000801F08D5BCF5801FF7D58B4218BF704709
:1024E00008BF824270474FF4001C1CEB410F38BFFD
:1024F0001CEB430F01D28B42704770B500F044F8DB
:10250000922449004FF000514FF08053FFF7B8BFBD
:1025100051EA030C17D41CF5801F58BFBCF5801F6F
:1025200000F10680994218BF704708BF904270477B
:1025300007D711F5801F58BF13F5801F19D4994292
:102540007047894270471CF5801F08D5BCF5801F75
:10255000F7D58B4218BF704708BF824270474FF4CF
:10256000001C1CEB410F38BF1CEB430F01D28B4208
:10257000704770B500F008F8922449004FF0005100
:102580004FF08053FFF77CBF0EF1020E2EF0030ECA
:102590005EF8046B364205D4012A43EB030515F5BA
:1025A000001F12D8012841EB010C1CF5001F0CD8AC
:1025B0000ED14FEAD17C0CEB4C0C0CF1020C15F552
:1025C000001F08BF4CEBD37C04E04FF0080C01E087
:1025D0004FEAD37C0CEB4C0526FA05F606F007060D
:1025E000B6F1040C06D20EEB860CBDE870404CF040
:1025F000010C6047DFE80CF0090B02024FF00041CC
:10260000A1F500214FF0000070BD194610460128C9
:1026100051EB010418BFD4F5001484BF002001F071
:10262000004170BD53EA010C17D41CF5801F58BF40
:10263000BCF5801F00F106808B4218BF704708BFB1
:102640008242704707D713F5801F58BF11F5801FCE
:1026500019D48B4270479B4270471CF5801F08D5E8
:10266000BCF5801FF7D5994218BF704708BF90424C
:1026700070474FF4001C1CEB430F38BF1CEB410F9D
:1026800001D2994270470FB40CBC03BCFFF771BF75
:10269000FF2141EAD050C00570474FF0000070475D
:1026A0000CF00F03092B08BF082000F05F800A2BF5
:1026B0000BD0082B18BF704708BF1CF0400F0AD082
:1026C0004FF000004FF0000170471CF0400F18BFA2
:1026D0004FF0004070471CF0100F08D000F07F4210
:1026E00020F0704342EAD3014FEA4370704700F094
:1026F000604021F07F4242EA000201F07F4040EA60
:10270000727070474FF0FF0C4CF4E06C1CEA1153F0
:102710001CBF9CEA030C9445C2BFDA4201EB025194
:102720007047002B0DD0BCF1000F0FD001F000411D
:10273000002AA4BF41F0E04141F07F614FF000006A
:10274000704701F000414FF00000704750EA01333C
:102750004FF09B0C18BF4CF0806C7FF489AE704733
:10276000FDF794BFFEF7C8B9FEF756BB1CF4801FF7
:1027700011D01CF4E02F03D06FEACC314900704730
:102780004FF04050EFF3008222F0704242EA000224
:1027900082F3008870474FF000007047024000004D
:1027A000000000A00000000005400000000000C87C
:1027B000000000000C4000000000409C00000000F1
:1027C000194000000020BCBE0000000034400000A2
:1027D000BFC91B8E00000004B5400000504BCFD095
:1027E0006607E2CF010000006C4100003E8251AA62
:1027F000DFEEA73401000000D9420000DCB5A0E202
:102800003A301F97FFFFFFFFB4450000FD25A0C829
:10281000E9A3C14FFFFFFFFFFF3F00000000008062
:1028200000000000FF3F00000000008000000000EA
:102830000038014000440040004800406F666600D8
:102840006F6E0000A029000800000020F0000000CA
:1028500028010008902A0008F0000020B8060000B7
:1028600044010008000000000000F07FFFFFFFFFB0
:10287000FFFFEF7F1C00000043000000F8FFFFFF98
:102880000C0000000E0000000F0000002E000000F1
:102890001001000043000000F8FFFFFF004040402F
:1028A0004040404040404141414141404040404023
:1028B00040404040404040404040404040050202CF
:1028C000020202020202020202020202022020208E
:1028D00020202020202020020202020202029090EA
:1028E00090909090101010101010101010101010E8
:1028F000101010101010101002020202020288883C
:102900008888888808080808080808080808080847
:10291000080808080808080802020202400000002F
:1029200000000000000000000000000000000000A7
:102930000000000000000000000000000000000097
:102940000000000000000000000000000000000087
:102950000000000000000000000000000000000077
:102960000000000000000000000000000000000067
:102970000000000000000000000000000000000057
:102980000000000000000000000000000000000047
:102990000000000000000000000000000000000037
:1029A0007265666572656E63650000000000000078
:1029B0000000000073616D706C6500000000000095
:1029C0000000000000000000636F6D6D616E6431F7
:1029D0000000000000000000000000007576206C80
:1029E0006564206F666600000000000000000000C3
:1029F000766973206C6564206F66660000000000D5
:102A000000000000636F6D6D616E643400000000B3
:102A10000000000000000000636F6D6D616E6435A2
:102A2000000000000000000000000000636F6D6DFA
:102A3000616E64360000000000000000000000002D
:102A40007576206C6564206F6E0000000000000049
:102A500000000000766973206C6564206F6E0000D2
:102A60000000000000000000676574207761766553
:102A70006C656E6774680000000000007761766521
:102A80006C656E67746800000000000000000000C4
:04000005080001A549
:00000001FF
