:020000040800F2
:100000000050002055130008A5130008A513000890
:10001000A5130008A5130008A513000800000000A0
:10002000000000000000000000000000A513000810
:10003000A513000800000000A5130008A513000880
:10004000A5130008A5130008A5130008A5130008B0
:10005000A5130008A5130008A5130008A5130008A0
:10006000A5130008A5130008A5130008A513000890
:10007000A5130008A5130008A5130008A513000880
:10008000A5130008A5130008A5130008A513000870
:10009000A5130008A5130008A5130008A513000860
:1000A000A5130008A5130008A5130008A513000850
:1000B000A5130008A5130008A5130008A513000840
:1000C000A5130008A5130008A5130008A513000830
:1000D000A5130008A5130008A5130008A513000820
:1000E000A5130008A513000800000000A5130008D0
:1000F000A5130008A5130008A5130008A513000800
:10010000A5130008A5130008A5130008A5130008EF
:10011000A5130008A5130008A5130008A5130008DF
:10012000A5130008A5130008A5130008A5130008CF
:1001300010B5054C237833B9044B13B10448AFF321
:1001400000800123237010BD00000020000000008B
:100150007C14000808B5034B1BB103490348AFF3F7
:10016000008008BD00000000040000207C1400088E
:1001700081F0004102E000BF83F0004330B54FEA58
:1001800041044FEA430594EA050F08BF90EA020FC5
:100190001FBF54EA000C55EA020C7FEA645C7FEA58
:1001A000655C00F0E2804FEA5454D4EB5555B8BF7B
:1001B0006D420CDD2C4480EA020281EA030382EAEC
:1001C000000083EA010180EA020281EA0303362D7E
:1001D00088BF30BD11F0004F4FEA01314FF4801C51
:1001E0004CEA113102D0404261EB410113F0004F63
:1001F0004FEA03334CEA133302D0524263EB43031A
:1002000094EA050F00F0A780A4F10104D5F1200EB7
:100210000DDB02FA0EFC22FA05F2801841F1000112
:1002200003FA0EF2801843FA05F359410EE0A5F1E6
:1002300020050EF1200E012A03FA0EFC28BF4CF017
:10024000020C43FA05F3C01851EBE37101F00045CD
:1002500007D54FF0000EDCF1000C7EEB00006EEBDA
:100260000101B1F5801F1BD3B1F5001F0CD3490864
:100270005FEA30004FEA3C0C04F101044FEA4452BB
:1002800012F5800F80F09A80BCF1004F08BF5FEA42
:10029000500C50F1000041EB045141EA050130BD22
:1002A0005FEA4C0C404141EB0101013C28BFB1F534
:1002B000801FE9D291F0000F04BF01460020B1FA7F
:1002C00081F308BF2033A3F10B03B3F120020CDA52
:1002D0000C3208DD02F1140CC2F10C0201FA0CF030
:1002E00021FA02F10CE002F11402D8BFC2F1200C95
:1002F00001FA02F120FA0CFCDCBF41EA0C0190404B
:10030000E41AA2BF01EB0451294330BD6FEA040493
:100310001F3C1CDA0C340EDC04F11404C4F120027E
:1003200020FA04F001FA02F340EA030021FA04F390
:1003300045EA030130BDC4F10C04C4F1200220FAE7
:1003400002F001FA04F340EA0300294630BD21FA25
:1003500004F0294630BD94F0000F83F4801306BFEB
:1003600081F480110134013D4EE77FEA645C18BFDF
:100370007FEA655C29D094EA050F08BF90EA020F76
:1003800005D054EA000C04BF1946104630BD91EA6E
:10039000030F1EBF0021002030BD5FEA545C05D171
:1003A0004000494128BF41F0004130BD14F58004B0
:1003B0003CBF01F5801130BD01F0004545F0FE4124
:1003C00041F470014FF0000030BD7FEA645C1ABF59
:1003D000194610467FEA655C1CBF0B46024650EA90
:1003E000013406BF52EA033591EA030F41F40021BC
:1003F00030BD00BF90F0000F04BF0021704730B542
:100400004FF4806404F132044FF000054FF0000116
:1004100050E700BF90F0000F04BF0021704730B5D7
:100420004FF4806404F1320410F0004548BF4042AC
:100430004FF000013EE700BF42004FEAE2014FEA01
:1004400031014FEA02701FBF12F07F4393F07F4FDC
:1004500081F06051704732F07F4208BF704793F0DF
:100460007F4F04BF41F40021704730B54FF46074F2
:1004700001F0004521F000411CE700BF50EA0102F5
:1004800008BF704730B54FF000050AE050EA01029E
:1004900008BF704730B511F0004502D5404261EB0E
:1004A00041014FF4806404F132045FEA915C3FF44F
:1004B000D8AE4FF003025FEADC0C18BF03325FEAEC
:1004C000DC0C18BF033202EBDC02C2F1200300FA9D
:1004D00003FC20FA02F001FA03FE40EA0E0021FAC2
:1004E00002F11444BDE600BF4A0011D212F5001219
:1004F00011D20DD56FF47873B3EB62520ED44FEA7C
:10050000C12343F0004343EA505323FA02F07047FB
:100510004FF00000704750EA013002D14FF0FF3039
:1005200070474FF00000704780F0004002E000BFCD
:1005300081F0004142001FBF5FEA410392EA030FCE
:100540007FEA226C7FEA236C6AD04FEA1262D2EB18
:100550001363C1BFD218414048404140B8BF5B421D
:10056000192B88BF704710F0004F40F4000020F0B6
:100570007F4018BF404211F0004F41F4000121F0CC
:100580007F4118BF494292EA030F3FD0A2F1010216
:1005900041FA03FC10EB0C00C3F1200301FA03F154
:1005A00000F0004302D5494260EB4000B0F5000F77
:1005B00013D3B0F1807F06D340084FEA310102F136
:1005C0000102FE2A51D2B1F1004F40EBC25008BFE8
:1005D00020F0010040EA03007047490040EB0000B2
:1005E000013A28BFB0F5000FEDD2B0FA80FCACF1B3
:1005F000080CB2EB0C0200FA0CF0AABF00EBC250E0
:1006000052421843BCBFD0401843704792F0000FCD
:1006100081F4000106BF80F400000132013BB5E720
:100620004FEA41037FEA226C18BF7FEA236C21D096
:1006300092EA030F04D092F0000F08BF08467047FB
:1006400090EA010F1CBF0020704712F07F4F04D1C9
:10065000400028BF40F00040704712F100723CBFDC
:1006600000F50000704700F0004343F0FE4040F406
:10067000000070477FEA226216BF08467FEA2363C4
:100680000146420206BF5FEA412390EA010F40F4AF
:10069000800070474FF0000304E000BF10F00043FB
:1006A00048BF40425FEA000C08BF704743F09643E2
:1006B00001464FF000001CE050EA010208BF7047FD
:1006C0004FF000030AE000BF50EA010208BF704784
:1006D00011F0004302D5404261EB41015FEA010C99
:1006E00002BF84460146002043F0B64308BFA3F191
:1006F0008053A3F50003BCFA8CF2083AA3EBC25373
:1007000010DB01FA02FC634400FA02FCC2F1200291
:10071000BCF1004F20FA02F243EB020008BF20F0C8
:100720000100704702F1200201FA02FCC2F120022E
:1007300050EA4C0021FA02F243EB020008BF20EA23
:10074000DC7070474FF0FF0C1CEAD0521EBF1CEA51
:10075000D15392EA0C0F93EA0C0F6FD01A4480EA3F
:10076000010C400218BF5FEA41211ED04FF0006328
:1007700043EA501043EA5111A0FB01310CF0004054
:10078000B1F5000F3EBF490041EAD3715B0040EA7A
:10079000010062F17F02FD2A1DD8B3F1004F40EB4A
:1007A000C25008BF20F00100704790F0000F0CF01D
:1007B000004C08BF49024CEA502040EA51207F3AE1
:1007C000C2BFD2F1FF0340EAC250704740F40000BC
:1007D0004FF00003013A5DDC12F1190FDCBF00F0AD
:1007E00000407047C2F10002410021FA02F1C2F15B
:1007F000200200FA02FC5FEA310040F1000053EAF7
:100800004C0308BF20EADC70704792F0000F00F044
:10081000004C02BF400010F4000F013AF9D040EA4A
:100820000C0093F0000F01F0004C02BF490011F4DE
:10083000000F013BF9D041EA0C018FE70CEAD153DC
:1008400092EA0C0F18BF93EA0C0F0AD030F0004C5C
:1008500018BF31F0004CD8D180EA010000F0004010
:10086000704790F0000F17BF90F0004F084691F0CE
:10087000000F91F0004F14D092EA0C0F01D1420208
:100880000FD193EA0C0F03D14B0218BF084608D1D1
:1008900080EA010000F0004040F0FE4040F400001B
:1008A000704740F0FE4040F4400070474FF0FF0CAE
:1008B0001CEAD0521EBF1CEAD15392EA0C0F93EAF5
:1008C0000C0F69D0A2EB030280EA010C49024FEA47
:1008D000402037D04FF0805343EA111143EA101300
:1008E0000CF000408B4238BF5B0042F17D024FF4B8
:1008F000000C8B4224BF5B1A40EA0C00B3EB510F93
:1009000024BFA3EB510340EA5C00B3EB910F24BF7B
:10091000A3EB910340EA9C00B3EBD10F24BFA3EB00
:10092000D10340EADC001B0118BF5FEA1C1CE0D1C8
:10093000FD2A3FF650AF8B4240EBC25008BF20F07B
:10094000010070470CF0004C4CEA50207F32C2BFCF
:10095000D2F1FF0340EAC250704740F400004FF06C
:100960000003013A37E792F0000F00F0004C02BF9D
:10097000400010F4000F013AF9D040EA0C0093F067
:10098000000F01F0004C02BF490011F4000F013BC1
:10099000F9D041EA0C0195E70CEAD15392EA0C0F29
:1009A00008D142027FF47DAF93EA0C0F7FF470AF61
:1009B000084676E793EA0C0F04D14B023FF44CAFA4
:1009C00008466EE730F0004C18BF31F0004CCAD139
:1009D00030F000427FF45CAF31F000437FF43CAF75
:1009E0005FE700BF80B584B000AF0346FB71002312
:1009F000FB8100220821002000F018FA0A2000F0F4
:100A000015F907F10E03002219460E4800F0C0FB4D
:100A10000A2000F00BF9FB799BB2FB8107F10E0372
:100A200000221946074800F0B3FB0A2000F0FEF848
:100A300001220821002000F0F9F900BF1037BD465F
:100A400080BD00BF0038004080B584B000AF0346D1
:100A5000FB710023FB8100220221002000F0E6F957
:100A60000A2000F0E3F807F10E03002219460E48B1
:100A700000F08EFB0A2000F0D9F8FB799BB2FB81D5
:100A800007F10E0300221946074800F081FB0A20F7
:100A900000F0CCF801220221002000F0C7F900BFCD
:100AA0001037BD4680BD00BF0038004080B586B01D
:100AB00000AF01237B8102233B810023FB800023C5
:100AC000BB801823FB8100237B8004233B80002311
:100AD0003B824FF44073BB8100237B613B46194648
:100AE000044800F0CFFA034800F092FB00BF18372B
:100AF000BD4680BD0038004080B584B000AF78604E
:100B000001220821002000F0ABF80122082100207A
:100B100000F08CF9052000F089F80123FB73FB7BC2
:100B20001946786800F02CF80346BB73BB7B184667
:100B3000FFF758FF00BF1037BD4680BD80B584B0B9
:100B400000AF786001220221002000F089F8012224
:100B50000221002000F06AF9052000F067F8002368
:100B6000FB73FB7B1946786800F00AF80346BB73F9
:100B7000BB7B1846FFF768FF00BF1037BD4680BD3E
:100B800090B587B000AF78600B46FB70FB78002B08
:100B900003D14BF610537B6102E04BF610537B619F
:100BA0004FF07E517868FFF7C3FC034619461D4895
:100BB000FFF77CFE03461C491846FFF7BBFC0346C3
:100BC0003B617869FFF76AFD034639691846FFF70C
:100BD000AFFC03464FF087411846FFF7B3FD0346CD
:100BE0001C467869FFF75AFD034619462046FFF771
:100BF0005DFE0346FB60F868FFF71EFC02460B46ED
:100C00001046194600F0F4FB02460B461046194602
:100C1000FFF76AFC0346FB72FB7A18461C37BD4699
:100C200090BD00BF0050C34700809B4380B485B097
:100C300000AF78607B684FF47A7202FB03F3BB600D
:100C40000023FB6002E0FB680133FB60FA68BB68CD
:100C50009A42F8D300BF00BF1437BD4680BC70472E
:100C600080B485B000AF0346FB710B46BB711346E1
:100C70007B710123FB73FB79022B00F08180022B37
:100C800000F3BA80002B02D0012B3DD0B4E0BB7939
:100C9000072B19D85F4B1B68BA7992000F2101FA14
:100CA00002F2D24311465B4A0B401360594B1B685A
:100CB0007979BA79920001FA02F21146554A0B434A
:100CC00013600023FB739AE0BB790F2B00F297802F
:100CD000514B1B68BA79083A92000F2101FA02F2CF
:100CE000D24311464C4A0B4013604B4B1B68797939
:100CF000BA79083A920001FA02F21146464A0B43C9
:100D000013600023FB737AE0BB79072B19D8434BA0
:100D10001B68BA7992000F2101FA02F2D243114600
:100D20003E4A0B4013603D4B1B687979BA799200BB
:100D300001FA02F21146394A0B4313600023FB7398
:100D40005FE0BB790F2B5CD8354B1B68BA79083A4A
:100D500092000F2101FA02F2D2431146304A0B40B1
:100D600013602F4B1B687979BA79083A920001FA1F
:100D700002F211462A4A0B4313600023FB7340E042
:100D8000BB79072B19D8274B1B68BA7992000F2122
:100D900001FA02F2D2431146224A0B401360214B62
:100DA0001B687979BA79920001FA02F211461D4A5C
:100DB0000B4313600023FB7325E0BB790F2B22D874
:100DC000194B1B68BA79083A92000F2101FA02F216
:100DD000D2431146144A0B401360134B1B687979B8
:100DE000BA79083A920001FA02F211460E4A0B4310
:100DF00013600023FB7306E00123FB7304E000BFD4
:100E000002E000BF00E000BFFB7B18461437BD4680
:100E100080BC70470008014004080140000C0140FC
:100E2000040C0140001001400410014080B485B062
:100E300000AF0346FB710B46BB7113467B71012368
:100E4000FB73FB79022B7CD8BB790F2B79D8FB790C
:100E5000022B4ED0022B70DC002B02D0012B24D0B1
:100E60006BE07B79012B0CD13A4B1B68BA790121DD
:100E700001FA02F21146374A0B4313600023FB7359
:100E80005EE07B79002B0DD1324B1B68BA790121D2
:100E900001FA02F2D24311462E4A0B40136000239E
:100EA000FB734DE00123FB734AE07B79012B0CD1EE
:100EB000294B1B68BA79012101FA02F21146264A30
:100EC0000B4313600023FB733AE07B79002B0DD1B9
:100ED000214B1B68BA79012101FA02F2D243114673
:100EE0001D4A0B4013600023FB7329E00123FB73B1
:100EF00026E07B79012B0CD1184B1B68BA790121B4
:100F000001FA02F21146154A0B4313600023FB73EA
:100F100016E07B79002B0DD1104B1B68BA790121AB
:100F200001FA02F2D24311460C4A0B40136000232F
:100F3000FB7305E00123FB7302E00123FB7300BF99
:100F400001E00123FB73FB7B18461437BD4680BCD0
:100F5000704700BF0C0801400C0C01400C10014010
:100F600080B400AF204B1B681F4A23F4802313601A
:100F70001D4B1B681C4A43F48033136000BF1A4B9F
:100F80001B6803F40033002BF9D0184B1B68174A79
:100F900043F001031360154B1B68144A23F002034E
:100FA0001360124B1B68114A23F0F00313600F4BC0
:100FB0000E4A1B6813600D4B1B680C4A23F4E06358
:100FC00013600A4B094A1B681360084B1B68074AE9
:100FD00023F460531360054B044A1B68136000231D
:100FE0001846BD4680BC7047001002400410024005
:100FF00080B485B000AF03460A46FB711346BB714F
:101000000123FB73FB79032B20D0032B2BDC012B5B
:1010100002D0022B0DD026E0174B1B68BA790121B4
:1010200001FA02F21146144A0B4313600023FB73CA
:101030001CE0124B1B68BA79012101FA02F2114639
:101040000E4A0B4313600023FB730FE00C4B1B682D
:10105000BA79012101FA02F21146094A0B431360E1
:101060000023FB7302E00123FB7300BFFB7B1846E8
:101070001437BD4680BC7047141002401C1002405B
:1010800018100240B0B584B000AF7860396000231A
:10109000FB810023BB817B68384A934211D1384AD7
:1010A0003B6814461D460FCD0FC495E8030084E845
:1010B0000300344B324A1A600C210320FFF798FFDB
:1010C00014E07B68304A934210D1304A3B681446A2
:1010D0001D460FCD0FC495E8030084E80300294B9B
:1010E0002A4A5A600E210220FFF782FF4023FB812B
:1010F0003B681A88FB891343FB813B685A88FB894C
:101100001343FB813B689A88FB891343FB813B684F
:10111000DA88FB891343FB813B681A89FB891343F7
:10112000FB813B685A89FB891343FB813B689B89A0
:10113000042B05D13B689A89BB891343BB8104E02A
:101140003B689A89FB891343FB813B68DA89FB89F9
:101150001343FB81FA897B681A60BA897B685A60FD
:101160007B68DB6923F400627B68DA617B680022BC
:101170001A6100BF1037BD46B0BD00BF003001404E
:10118000240000201C000020003800403C0000200B
:1011900080B487B000AFF860B9601346FB710023DC
:1011A000FB75FB68174A934202D10023FB7505E0EB
:1011B000FB68154A934201D10123FB75FB7D134A5D
:1011C00052F823305B88002B07D0FB7D0F4A52F882
:1011D00023305B88B3F5404F0ED1FB79002B06D14D
:1011E00000BFFB689B6803F00203002BF9D0BB68CB
:1011F0001B881A46FB68DA6000BF1C37BD4680BCFE
:10120000704700BF00300140003800401C00002043
:1012100080B582B000AF78607B683A4A934239D19A
:10122000394B1B681B88042B1AD1374B1B689B89D1
:10123000042B05D1092204210020FFF711FD00BF76
:10124000092205210020FFF70BFD042206210020C2
:10125000FFF706FD092207210020FFF701FD4CE002
:10126000294B1B689B89002B04D1042204210020F8
:10127000FFF7F6FC042205210020FFF7F1FC09220C
:1012800006210020FFF7ECFC042207210020FFF7D5
:10129000E7FC32E07B681D4A93422ED11A4B5B6813
:1012A0001B88042B15D1184B5B689B89042B05D137
:1012B00009220C210120FFF7D3FC00BF09220D21D8
:1012C0000120FFF7CDFC09220F210120FFF7C8FC08
:1012D00013E00D4B5B689B89002B04D104220C2189
:1012E0000120FFF7BDFC04220D210120FFF7B8FC0F
:1012F00009220F210120FFF7B3FC00BF0837BD46CC
:1013000080BD00BF003001401C00002000380040BC
:1013100080B500AFFFF724FE03210320FFF768FE2E
:1013200002210320FFF764FE00210320FFF760FE87
:101330000E210220FFF75CFEFFF7B8FB0448FFF721
:10134000DBFB0A20FFF772FC0148FFF7F7FBFEE723
:10135000000020410D488546AFF300800C480D4940
:101360000D4A002302E0D458C4500433C4188C4200
:10137000F9D30A4A0A4C002301E013600432A24266
:10138000FBD300F011F8FFF7C3FFFEE70050002089
:1013900000000020000000209C1400080000002035
:1013A00054000020FEE7000070B500260C4D0D4CE7
:1013B000641BA410A64209D100F060F800260A4D73
:1013C0000A4C641BA410A64205D170BD55F8043B1D
:1013D00098470136EEE755F8043B98470136F2E7A7
:1013E0009414000894140008941400089814000839
:1013F000F8B5C1F30A57A7F2FF32132A0B46054688
:101400000C4618DC002A09DA013201F0004303D14E
:1014100043F07F5343F44013002229E01648104163
:101420000140294311D04FF4002141FA02F2134444
:1014300023EA0003F0E7332A0ADDB2F5806F04D116
:101440000246FEF79BFE05460C4628462146F8BD9F
:101450004FF0FF30A7F21347F8402842F5D0C2F111
:10146000330101228A40521928BF013322EA0002C7
:1014700019461046E7E700BFFFFF0F00F8B500BFB1
:10148000F8BC08BC9E467047F8B500BFF8BC08BC65
:041490009E467047BD
:0414940055010008F6
:041498003101000816
:040000050800135587
:00000001FF
